:100000000C94A0000C94A6020C94CF020C94F8025D
:100010000C94BD000C94BD000C94BD000C94BD006C
:100020000C94BD000C94BD000C94BD000C94BD005C
:100030000C94BD000C94BD000C94BD000C94BD004C
:100040000C94BD000C94BD000C94BD000C94BD003C
:100050000C94BD009C10A510AE10B710C010C910B4
:10006000D210DB10E410ED102C112C112C112C11DE
:100070002C112C112C11F610FF10081111111A114E
:10008000231107634236B79BD8A71A39685618AEB2
:10009000BAAB558C1D3CB7CC5763BD6DEDFD753EBD
:1000A000F6177231BF000000803F08000000BE92CA
:1000B0002449123EABAAAA2ABECDCCCC4C3E0000AD
:1000C0000080BEABAAAAAA3E00000000BF0000004C
:1000D000803F0000000000084178D3BB4387D11364
:1000E0003D190E3CC3BD4282AD2B3E68EC8276BE0C
:1000F000D98FE1A93E4C80EFFFBE01C4FF7F3F00D6
:10010000000000004E414E494E495459494E46CDDB
:10011000CCCC3D0AD7233C17B7D13877CC2B3295BE
:1001200095E6241FB14F0A000020410000C842009C
:10013000401C4620BCBE4CCA1B0E5AAEC59D740066
:1001400011241FBECFE5D8E0DEBFCDBF11E0A0E691
:10015000B0E0E0EDFCE302C005900D92AE3CB107CB
:10016000D9F721E0AEECB1E001C01D92A33FB20788
:10017000E1F70E94B0120C94661E0C9400008FEF01
:100180008ABB87BB14BA98EF91BB1BBA18BA85BB60
:1001900087E082BB81E00895843008F067C0683052
:1001A00008F066C0423008F065C08130E9F030F0F8
:1001B000823081F1833009F443C05EC081E090E079
:1001C000062E02C0880F991F0A94E2F780952AB381
:1001D0002823842F90E002C0880F991F6A95E2F7C8
:1001E000822B8ABB81E0089521E030E0062E02C018
:1001F000220F331F0A94E2F7209587B32823842F18
:1002000090E002C0880F991F6A95E2F7822B87BBA6
:1002100081E0089521E030E0062E02C0220F331F56
:100220000A94E2F7209584B32823842F90E002C03B
:10023000880F991F6A95E2F7822B84BB81E00895AD
:1002400021E030E0062E02C0220F331F0A94E2F7AD
:10025000209581B32823842F90E002C0880F991F36
:100260006A95E2F7822B81BB81E0089583E00895CF
:1002700083E0089583E0089581E00895843008F0D4
:1002800067C0683008F066C0423008F065C0813051
:10029000E9F030F0823081F1833009F443C05EC070
:1002A00081E090E0062E02C0880F991F0A94E2F7C1
:1002B00080952BB32823842F90E002C0880F991FCC
:1002C0006A95E2F7822B8BBB81E0089521E030E054
:1002D000062E02C0220F331F0A94E2F7209588B33E
:1002E0002823842F90E002C0880F991F6A95E2F7B7
:1002F000822B88BB81E0089521E030E0062E02C009
:10030000220F331F0A94E2F7209585B32823842F08
:1003100090E002C0880F991F6A95E2F7822B85BB97
:1003200081E0089521E030E0062E02C0220F331F45
:100330000A94E2F7209582B32823842F90E002C02C
:10034000880F991F6A95E2F7822B82BB81E008959E
:1003500083E0089583E0089583E0089581E008959F
:1003600041155105E1F18430E0F56830E0F5813068
:1003700091F028F08230D9F0833029F136C089B36A
:1003800090E002C0959587956A95E2F78170FA0131
:10039000808381E0089586B390E002C095958795AB
:1003A0006A95E2F78170FA01808381E0089583B352
:1003B00090E002C0959587956A95E2F78170FA0101
:1003C000808381E0089580B390E002C09595879581
:1003D0006A95E2F78170FA01808381E0089582E0F6
:1003E000089583E0089583E0089581E008958430BE
:1003F00010F56295607F813061F028F0823079F0ED
:10040000833099F01AC08BB38F70682B6BBB81E07F
:10041000089588B38F70682B68BB81E0089585B319
:100420008F70682B65BB81E0089582B38F70682B55
:1004300062BB81E0089583E0089581E008958130F2
:1004400049F018F0823059F008957093D301609309
:10045000D20108957093D1016093D00108957093F3
:10046000CF016093CE010895813041F018F08230C1
:1004700049F008958BB780648BBF08958BB780686F
:100480008BBF08958BB780628BBF0895813049F18F
:1004900020F0823009F449C00895613069F028F0F5
:1004A000623089F06330B1F0089585B78E7F85BFE3
:1004B00085B78D7F85BF089585B7816085BF85B776
:1004C0008D7F85BF089585B78E7F85BF85B7826094
:1004D00085BF089585B7816085BF85B7826085BF78
:1004E0000895613069F028F0623089F06330B1F02E
:1004F000089585B78B7F85BF85B7877F85BF0895B2
:1005000085B7846085BF85B7877F85BF089585B728
:100510008B7F85BF85B7886085BF089585B7846068
:1005200085BF85B7886085BF0895623019F0633054
:1005300029F008C084B78F7B84BF089584B7806496
:1005400084BF089584B78F7B84BF08951F920F9254
:100550000FB60F9211242F933F934F935F936F9396
:100560007F938F939F93AF93BF93EF93FF93E0910C
:10057000D201F091D301309709F00995FF91EF91E5
:10058000BF91AF919F918F917F916F915F914F91AB
:100590003F912F910F900FBE0F901F9018951F92B3
:1005A0000F920FB60F9211242F933F934F935F93A7
:1005B0006F937F938F939F93AF93BF93EF93FF932B
:1005C000E091D001F091D101309709F00995FF91A8
:1005D000EF91BF91AF919F918F917F916F915F91BB
:1005E0004F913F912F910F900FBE0F901F90189534
:1005F0001F920F920FB60F9211242F933F934F9398
:100600005F936F937F938F939F93AF93BF93EF937A
:10061000FF93E091CE01F091CF01309709F0099559
:10062000FF91EF91BF91AF919F918F917F916F91CA
:100630005F914F913F912F910F900FBE0F901F90A0
:10064000189540E060E082E00E94CC0040E061E06C
:1006500082E00E94CC0040E062E082E00E94CC0098
:1006600040E063E082E00E94CC0041E060E082E094
:100670000E943E0141E061E082E00E943E0141E0D3
:1006800062E082E00E943E0141E063E082E00E947D
:100690003E0141E064E082E00E94CC0041E065E080
:1006A00082E00E94CC0041E066E082E00E94CC0043
:1006B00041E067E082E00E94CC0041E064E082E03B
:1006C0000E943E0141E065E082E00E943E0141E07F
:1006D00066E082E00E943E0141E067E082E00E9425
:1006E0003E0141E060E083E00E94CC0041E061E037
:1006F00083E00E94CC0041E060E083E00E943E0184
:1007000041E061E083E00E943E0181E00895CF92E4
:10071000DF92EF92FF920F931F93CF93DF931F927D
:10072000CDB7DEB76C018FEFF601808300E05CC0CF
:10073000043058F4E02FF0E0E559FF4F40E06081CD
:1007400082E00E943E0110E037C0E02FF0E0E55962
:10075000FF4F40E0608183E00E943E01F4CFE12E34
:10076000F12CF701E959FF4FAE014F5F5F4F6081F8
:1007700082E00E94B001898181111DC0F701EE0F56
:10078000FF1FEE0DFF1DEE0FFF1FEF58FF4FE00F95
:10079000F11D8081F60180830AC0AE014F5F5F4F7B
:1007A000F701E959FF4F608182E00E94B001898121
:1007B000882399F31CC01F5F143088F2043050F472
:1007C000E02FF0E0E559FF4F41E0608182E00E94B8
:1007D0003E0109C0E02FF0E0E559FF4F41E06081A4
:1007E00083E00E943E010F5F063008F4A1CF81E054
:1007F0000F90DF91CF911F910F91FF90EF90DF90BD
:10080000CF90089541E062E081E00E943E018FECCC
:1008100097E00197F1F700C0000040E062E081E05E
:100820000E943E018FEC97E00197F1F700C00000B5
:100830000895CF93C82F40E060E081E00E943E0120
:1008400040E061E081E00E943E016C2F62956F7094
:1008500080E00E94F7010E9402046C2F80E00E9459
:10086000F7010E9402048FEC97E00197F1F700C0B6
:10087000000081E0CF910895CF93C82F41E060E060
:1008800081E00E943E0140E061E081E00E943E0183
:100890006C2F62956F7080E00E94F7010E94020445
:1008A0006C2F80E00E94F7010E9402048FEC97E019
:1008B0000197F1F700C0000081E0CF9108950F93F8
:1008C0001F93CF938C01C0E003C00E943C04CF5F14
:1008D000F801EC0FF11D80818111F7CF81E0CF91FC
:1008E0001F910F9108952F923F924F925F926F92B6
:1008F0007F928F929F92AF92BF92CF92DF92EF92B0
:10090000FF920F931F93CF93DF93CDB7DEB7289756
:100910000FB6F894DEBF0FBECDBF29833A834B8359
:100920005C836D837E83382E292EA0E00E949E1862
:1009300021F480E30E943C04E2C029813A814B818A
:100940005C816D817E81A0E00E949E186CF40E9403
:10095000351829833A834B835C836D837E83382EDD
:10096000292E8DE20E943C0481E01886912C812C76
:10097000712C612C512C412C8F837CC02F813885A8
:10098000492D582D672D762D852D942D01E00E943F
:100990007C18822E932E48875F83B62FA72FF82FBF
:1009A000E92F02E00E947C18A22EB32EC42ED52E71
:1009B000E62EF72E082F192F282D392D48855F8117
:1009C0006B2F7A2F8F2F9E2F0E94951828873F8399
:1009D000942E852E762E672E582E492E0F2EFAE055
:1009E000AF2EF02DB12CC12CD12CE12CF12C00E03C
:1009F00010E029813A814B815C816D817E81832D5C
:100A0000922D0E94A517A22EB32EC42ED52EE62E0F
:100A1000F72E082F192F28853F81492D582D672D36
:100A2000762D852D942D0E9495182F833887942E2E
:100A3000852E762E672E582E492E0F2EFAE0AF2ED9
:100A4000F02DB12CC12CD12CE12CF12C00E010E0C8
:100A500029813A814B815C816D817E81832D922D2C
:100A60000E94A71729833A834B835C836D837E831F
:100A7000382E292E29813A814B815C816D817E81BE
:100A8000832D922DA0E00E949E1809F077CF2BC0F5
:100A90000F2EFAE0AF2EF02DB12CC12CD12CE12C71
:100AA000F12C00E010E02F813885492D582D672D5D
:100AB000762D852D942D0E94D61780E3820F0E94FB
:100AC0003C042F813885492D582D672D762D852D95
:100AD000942D0E94D8172F833887942E852E762E3A
:100AE000672E582E492E2F813885492D582D672D78
:100AF000762D852D942DA1E00E949E1849F681E067
:100B000028960FB6F894DEBF0FBECDBFDF91CF9110
:100B10001F910F91FF90EF90DF90CF90BF90AF901B
:100B20009F908F907F906F905F904F903F902F900D
:100B300008959FEF980F923070F4613170F466233E
:100B400071F0813019F42FE7260F0AC0823041F48A
:100B50002FEB260F05C020E803C020E801C020E8E5
:100B6000822F0E9419048FEC97E00197F1F700C0E3
:100B7000000081E0089581E00E9419048FE99FE060
:100B80000197F1F700C0000081E008952FE788E3A6
:100B900091E0215080409040E1F700C0000041E02A
:100BA00064E080E00E94CC0041E065E080E00E94CB
:100BB000CC0041E066E080E00E94CC0041E067E0CC
:100BC00080E00E94CC0041E060E081E00E94CC0027
:100BD00041E061E081E00E94CC0041E062E081E020
:100BE0000E94CC0082E00E9419048FE59AEE0197E2
:100BF000F1F700C0000088E20E9419048FEC97E032
:100C00000197F1F700C000008CE00E9419048FECFE
:100C100097E00197F1F700C000000E94BB0586E055
:100C20000E9419048FEC97E00197F1F700C00000D3
:100C300081E008959F938F937F936F9389E890E06D
:100C40009F938F930E94331A0F900F900F900F90E5
:100C50000F900F9008956150710920E030E00EC0B0
:100C6000DC01A20FB31F4C91FC01E60FF71F50816E
:100C70005C9340832F5F3F4F615071092617370700
:100C80007CF308950F931F93CF93DF938B019A0109
:100C9000C0E0D0E00CC0F801EC0FFD1F6AE070E08E
:100CA0000E948B17805D8083862F972F2196009757
:100CB00091F706C0F801EC0FFD1F80E380832196B9
:100CC000C217D307BCF3BE01C8010E942B06F8016E
:100CD000EC0FFD1F1082CE01DF91CF911F910F917C
:100CE00008954F925F926F927F928F929F92AF92F0
:100CF000BF92CF92DF92EF92FF920F931F93CF9309
:100D0000DF936B017C018A01E90120E030E0A90159
:100D10000E943A14882324F4F7FAF094F7F8F09438
:100D2000C701B6010E94B1144B015C01072E000CF3
:100D3000880B990B0E94E9149B01AC01C701B60115
:100D40000E94CD132B013C0140E050E0B801C401EA
:100D50000E9442067C01209739F1F801E80FF91F43
:100D60008EE28083BE010D2E000C880B990B0E9431
:100D7000E9149B01AC0160E070E080E291E40E9424
:100D800006169B01AC01C301B2010E9499152FEF19
:100D9000E21AF20AE00EF11E0E94B114DC01CB014E
:100DA000AE01B7010E944206DF91CF911F910F91D2
:100DB000FF90EF90DF90CF90BF90AF909F908F907B
:100DC0007F906F905F904F900895805391E08A30AC
:100DD00008F090E0892F90E008958B3259F08D3221
:100DE00061F08A3269F08F3271F08E3579F481E0EA
:100DF00090E0089581E090E0089581E090E008950A
:100E000081E090E0089581E090E0089580E090E036
:100E100008956E3599F06A3211F06F3231F481E045
:100E20002E3509F480E090E008952E3551F02A32F5
:100E300059F02F3261F480E090E0089581E090E075
:100E4000089580E090E0089580E090E0089581E0CA
:100E500090E008957F928F929F92AF92BF92CF922F
:100E6000DF92EF92FF920F931F93CF93DF93CDB753
:100E7000DEB72E970FB6F894DEBF0FBECDBF8C0144
:100E80006B01CE0101960E94F612F80180818D322D
:100E900029F40F5F1F4F7724739401C0712CE12C4C
:100EA0008CC08F2D0E94E506892B19F4FEE2FF12FB
:100EB0002BC0C8010E94DF194B015C0121E07212B6
:100EC00006C0DC01CB01B0584C015D01712C81E002
:100ED000E81208C0B7FAB094B7F8B094E12C02C099
:100EE0000F5F1F4FF801F0808F2D0E94E506892BC0
:100EF000B9F7FEE2FF16A1F301501109B501A401F3
:100F0000C6010E94131357C08F2D0E94ED06892B36
:100F100009F451C08F2CBE01695F7F4FCE0101964D
:100F20000E947413F801319780810E94ED060097AA
:100F300031F02BE2F21203C00F5F1F4F3EC0892B2E
:100F4000E9F08DE2F8121AC00F5F1F4FEE24E39410
:100F500034C0BE016F5F7F4FCE010B960E944313DA
:100F60004B855C856D857E85C6010E941313BE018D
:100F7000695F7F4FCE0101960E947413CE010196E6
:100F80000E94001381110AC06F81788589859A8536
:100F9000A50194010E940907892BD9F6B501A40186
:100FA000CE0101960E941313BE01695F7F4FCE01EF
:100FB00001960E9474130F5F1F4FF801F080F1102B
:100FC00070CF0EC0BE016F5F7F4FCE010B960E94A7
:100FD00043134B855C856D857E85C6010E94131386
:100FE000CE0101960E940013882361F32E960FB65E
:100FF000F894DEBF0FBECDBFDF91CF911F910F914F
:10100000FF90EF90DF90CF90BF90AF909F908F9028
:101010007F900895EF92EE2DED3271F028F4EA32D0
:1010200071F0EB3231F014C0EF3261F0EE3569F05F
:101030000FC00E94CE130DC00E94CD130AC00E94A3
:10104000991507C00E943F1404C00E94061601C0F3
:1010500004C0562F472F382F292F652F742F832F29
:10106000922FEF900895CF92DF92EF92FF920F931D
:101070001F93CF93DF93CDB7DEB762970FB6F89487
:10108000DEBF0FBECDBF6C01CE0101960E94F612ED
:1010900035C0B601CE0107960E9443138F810E948E
:1010A000ED06892B49F44F81588569857A85CE01F3
:1010B00001960E94131322C0BE016F5F7F4FCE01C5
:1010C0000B960E944313BE016F5F7F4FCE010F96B8
:1010D0000E944313EF80F88409851A852B853C858F
:1010E0004D855E856F85788989899A890E940A086D
:1010F000AB01BC01CE0101960E941313C6010E94F0
:101100000013882331F2BE016F5F7F4FCE01079637
:101110000E9443136F81788589859A8562960FB600
:10112000F894DEBF0FBECDBFDF91CF911F910F911D
:10113000FF90EF90DF90CF9008958F929F92AF92A3
:10114000BF92CF92DF92EF92FF920F931F93CF93B4
:10115000DF93CDB7DEB7E5970FB6F894DEBF0FBECD
:10116000CDBFFE01329680E1DF011D928A95E9F73D
:10117000CE018A960E94F612CE01C0960E94F61207
:101180008091D401813021F40E94BB051092D401DA
:101190008EE00E94190461E081E00E94990500E060
:1011A00010E0CE0101960E94870389818F3FC9F329
:1011B000803209F466C08D3409F463C08E3309F4BB
:1011C00060C08C3309F45DC08D3309F45AC0873494
:1011D00009F457C0833409F454C011112FC08B3265
:1011E00041F08D3231F08A3221F08F3211F08E359C
:1011F00029F50E94BB05DE015296FD0101900020F9
:10120000E9F731971E2F1A1B20E011C0822F90E0C2
:10121000E2E1F0E0EC0FFD1FE80FF91F3081E2E0A2
:10122000F0E0EC0FFD1FE80FF91F30832F5F21174F
:1012300068F3CE0142960E945F0410C011110EC0E7
:101240000E94BB0580E008C0E2E0F0E0EC0FFD1F6B
:10125000E80FF11D10828F5F8031B0F389810E9409
:101260003C0481E0810FE2E0F0E0EC0FFD1FE10FB4
:10127000F11D99819083803108F0AFC0182F00E0F4
:10128000B0C08032C1F40E94BB05CE018A960E9494
:10129000AF13CE01C0960E94AF1380E008C0E2E019
:1012A000F0E0EC0FFD1FE80FF11D10828F5F803121
:1012B000B0F310E096C08E3391F5212F30E0F901A4
:1012C000319682E090E08C0F9D1FE80FF91F80811E
:1012D000882361F0013051F4FF24F394F10E62E0B1
:1012E000610F81E00E9499051F2D7BC0811179C09B
:1012F000013009F076C0E2E0F0E0EC0FFD1FE20FF4
:10130000F31F8081882309F46CC0FF24F394F10E4D
:1013100062E0610F81E00E9499051F2D62C08C334D
:1013200061F4112309F45CC00FEF010F612F81E01C
:101330000E949905102F01E054C0833409F04AC07F
:10134000112309F44EC0DD24DA94D10EED2CF12CDA
:10135000F7013196A2E0B0E0AC0FBD1FEA0FFB1F12
:101360008081811114C0612F81E00E94990580E085
:101370000E943C04E2E0F0E0EC0FFD1FEE0DFF1DCB
:101380001082612F81E00E9499051D2D2AC080E006
:101390000E943C04E2E0F0E0EC0FFD1FE10FF11DC4
:1013A000108260E070E0CE0102960E94201ABC011B
:1013B0006F5F7F4FCE0102960E94151A0E94BB05F7
:1013C000CE0102960E945F04612F81E00E94990580
:1013D0001D2D07C08D3429F432C200E010E001C099
:1013E00001E089818D3309F0DCCEDE011296FD012A
:1013F00001900020E9F73197EA1BFB0B6F01DD2418
:10140000AC0DBD1D1C92EE2309F41BC2DE01129629
:10141000FD0101900020E9F731977F01EA1AFB0AEC
:10142000B1E0EB16F10409F025C18A818A3249F056
:101430008F3239F08E3529F08D3219F08B3209F068
:101440001BC10E94BB0561E081E00E9499058EE806
:1014500090E00E945F0461E082E00E9499058BE9C0
:1014600090E00E945F04CE0101960E94870389816B
:101470008F3FC9F38032B9F70E94BB0580E0E2C11B
:101480000A2D10E0E2E0F0E0EC0FFD1FE00FF11F8D
:1014900080818A3221F08F3211F08E3571F5F8019A
:1014A000319622E030E02C0F3D1FE20FF31F9081B8
:1014B0009A3221F09F3211F09E35F9F40E94BB055B
:1014C00061E081E00E9499058EE890E00E945F044F
:1014D00061E082E00E9499058BE990E00E945F0440
:1014E000CE0101960E94870389818F3FC9F3803224
:1014F000B9F70E94BB0580E0A5C18E3209F05AC041
:101500006EE270E0C4010196A2E0B0E0AC0FBD1F36
:101510008A0F9B1F0E94201A009709F4A9C022E09D
:1015200030E02C0F3D1F820E931E88199909BB24B1
:10153000BA94B80E812C18C0F801EB0DF11D82E0B1
:1015400090E08C0F9D1FE80FF91F9080892D0E945D
:10155000E506892B31F4892D0E94ED06892B19F0BF
:1015600006C088248394BA94B110E6CF01C0812CC0
:1015700091E089127DC00E94BB0561E081E00E947C
:1015800099058EE890E00E945F0461E082E00E948D
:1015900099058BE990E00E945F04CE0101960E94BC
:1015A000870389818F3FC9F38032B9F70E94BB0559
:1015B00080E048C1F6013197A2E0B0E0AC0FBD1F5A
:1015C000EA0FFB1F90819A3241F09F3231F09E3535
:1015D00021F09D3211F09B32F9F40E94BB0561E0CD
:1015E00081E00E9499058EE890E00E945F0461E02E
:1015F00082E00E9499058BE990E00E945F04CE0191
:1016000001960E94870389818F3FC9F38032B9F721
:101610000E94BB0580E016C18F3251F50F5F1F4F4E
:10162000E2E0F0E0EC0FFD1FE00FF11F808180335E
:10163000F9F40E94BB0561E081E00E94990584EA0B
:1016400090E00E945F0461E082E00E9499058BE9CE
:1016500090E00E945F04CE0101960E948703898179
:101660008F3FC9F38032B9F70E94BB0580E0EAC022
:10167000A39403C0A12C01C0A12C8A2C912CC701DA
:1016800001978816990608F4FBCEF12C65C0E2E0BC
:10169000F0E0EC0FFD1FE00FF11FE0808E2D0E94A7
:1016A000E506892B09F457C0F801319622E030E0B5
:1016B0002C0F3D1FE20FF31F80810E94E506892B4E
:1016C00009F449C0F801329682E090E08C0F9D1F2A
:1016D000E80FF91F80810E94E506892BE1F1F801EE
:1016E0003396A2E0B0E0AC0FBD1FEA0FFB1F808174
:1016F0000E94E506892B79F1F801349622E030E06A
:101700002C0F3D1FE20FF31F80810E94E506892BFD
:1017100011F135E33E15F8F40E94BB0561E081E06C
:101720000E9499058FEA90E00E945F0461E082E0E8
:101730000E9499058BE990E00E945F04CE0101961A
:101740000E94870389818F3FC9F38032B9F70E94D5
:10175000BB0580E077C0F3940F2D0F2C000C110B0C
:10176000C6010597801791070CF091CFBE01665D09
:101770007F4FCE0102960E942A07CE018A960E94D0
:10178000A9136B017C0114C0BE01665D7F4FCE01C1
:1017900086960E9443134EA15FA168A579A5CE014C
:1017A000C0960E94131381E0C81AD108E108F1081D
:1017B000C114D104E104F10439F76AE176E0CE0105
:1017C000C0960E949013CE01C0960E9433086B0110
:1017D0007C0120E030E0A9010E943A14882364F4DF
:1017E0008DE28A8B24E030E0AE014D5E5F4FC70191
:1017F000B6010E94710609C024E030E0AE014E5EE1
:101800005F4FC701B6010E94710661E082E00E944D
:1018100099058CEB90E00E945F0469E082E00E94F1
:101820009905CE0142960E945F04CE018A960E94DD
:10183000AF13CE01C0960E94AF1381E003C081E0D8
:1018400001C080E0E5960FB6F894DEBF0FBECDBFB5
:10185000DF91CF911F910F91FF90EF90DF90CF908C
:10186000BF90AF909F908F9008951F93CF93DF9379
:101870001F92CDB7DEB70E94BB0510E0CE010196E6
:101880000E948703898190ED980F9A3010F08D3374
:10189000A9F78D3349F00E943C04E12FF0E0EA52B1
:1018A000FE4F898180831F5F89818D3339F7E12F56
:1018B000F0E0EA52FE4F10820E94BB0586ED91E0F7
:1018C0000E945F0461E082E00E94990585EC90E04F
:1018D0000E945F04CE0101960E94870389818334B0
:1018E00011F08D34B9F70F90DF91CF911F910895CA
:1018F0000F931F93CF93DF93CDB7DEB7A1970FB6AA
:10190000F894DEBF0FBECDBFFE01329680E2DF014C
:101910001D928A95E9F70E94BB0510E0CE01019661
:101920000E948703898190ED980F9A3010F08D33D3
:10193000A9F78D3349F00E943C04E12FF0E0EA5210
:10194000FE4F898180831F5F89818D3339F7E12FB5
:10195000F0E0EA52FE4F10820E94BB0586ED91E056
:101960000E94E319092E000CAA0BBB0B0097A105DE
:10197000B105E9F420E030E040E050E060E070E0E4
:1019800080E090E00E94730442C0E2E0F0E0EC0FDF
:10199000FD1FE40FF51F282F21702083B695A79512
:1019A000979587954F5F5F4F6F4F7F4F03C040E024
:1019B00050E0BA010097A105B10539F78A0101503D
:1019C000110912C0E2E0F0E0EC0FFD1FE00FF11F83
:1019D000208130E040E050E060E070E080E090E0A6
:1019E0000E94730401501109112364F761E082E041
:1019F0000E94990585EC90E00E945F04CE0101965B
:101A00000E9487038981833411F08D34B9F7A19640
:101A10000FB6F894DEBF0FBECDBFDF91CF911F91FF
:101A20000F9108950F931F93CF93DF93CDB7DEB738
:101A3000A1970FB6F894DEBF0FBECDBFFE01329660
:101A400080E2DF011D928A95E9F70E94BB0510E054
:101A5000CE0101960E948703898190ED980F9A30FC
:101A600010F08D33A9F78D3349F00E943C04E12F2B
:101A7000F0E0EA52FE4F898180831F5F89818D33B8
:101A800039F7E12FF0E0EA52FE4F10820E94BB05C9
:101A900086ED91E00E94E319092E000CAA0BBB0B06
:101AA0000097A105B105A1F520E030E040E050E04D
:101AB00060E070E080E090E00E94730452C08C010E
:101AC0009D010F701127222733270A3011052105A8
:101AD000310548F4E2E0F0E0EC0FFD1FE40FF51FE4
:101AE000005D008308C0E2E0F0E0EC0FFD1FE40FB2
:101AF000F51F095C0083689413F8B695A795979530
:101B000087951694D1F74F5F5F4F6F4F7F4F03C09C
:101B100040E050E0BA010097A105B10581F68A01C5
:101B2000015011090BC0E2E0F0E0EC0FFD1FE00FE7
:101B3000F11F80810E943C040150110911239CF780
:101B400061E082E00E94990585EC90E00E945F04CC
:101B5000CE0101960E9487038981833411F08D3470
:101B6000B9F7A1960FB6F894DEBF0FBECDBFDF91D7
:101B7000CF911F910F9108951F93CF93DF931F92E1
:101B8000CDB7DEB70E94BB0510E001C0132FCE0118
:101B900001960E948703898190ED980F923010F092
:101BA0008D33A9F7803319F40E943C0404C08133BB
:101BB00011F40E943C0431E0310F812F90E0298123
:101BC000FC01EA52FE4F20832D3301F7FC01EA525B
:101BD000FE4F10820E94BB0586ED91E00E945F04DB
:101BE00061E082E00E94990585EC90E00E945F042C
:101BF000CE0101960E9487038981833411F08D34D0
:101C0000B9F70F90DF91CF911F9108958F929F9216
:101C1000AF92BF92CF92DF92EF92FF921F93CF933A
:101C2000DF931F92CDB7DEB70E94BB0510E001C065
:101C3000132FCE0101960E948703898190ED980FA2
:101C4000923010F08D33A9F70E943C0431E0310F3F
:101C5000812F90E02981FC01EA52FE4F20832D3331
:101C600039F7FC01EA52FE4F108220E030E0C12C2F
:101C7000D12C76011AC0FC01E21BF30BEB52FE4F94
:101C80004081413381F441E050E0022E02C0440F14
:101C9000551F0A94E2F7052E000C660B770BC40E55
:101CA000D51EE61EF71E2F5F3F4F281739071CF37E
:101CB0000E94BB0546015701282D392D4A2D5B2D69
:101CC00060E070E080E090E00E94730461E082E0F8
:101CD0000E94990585EC90E00E945F04CE01019678
:101CE0000E9487038981833411F08D34B9F70F90F6
:101CF000DF91CF911F91FF90EF90DF90CF90BF9039
:101D0000AF909F908F900895CF92DF92EF92FF92C5
:101D1000CF93DF93CDB7DEB7A1970FB6F894DEBFB0
:101D20000FBECDBFFE01329680E2DF011D928A9583
:101D3000E9F70E94BB05F12C01C0F32ECE010196FC
:101D40000E948703898190ED980F923010F08D33B7
:101D5000A9F70E943C0431E03F0D8F2D90E02981CE
:101D6000FC01EA52FE4F20832D3339F7FC01EA5281
:101D7000FE4F108220E030E040E050E0BA011BC08E
:101D8000FC01E21BF30BEB52FE4FE081E13389F4DF
:101D9000E1E0F0E06F01022E02C0CC0CDD1C0A94E1
:101DA000E2F70D2C000CEE08FF084C0D5D1D6E1DBA
:101DB0007F1D2F5F3F4F2817390714F3C12CD12CFB
:101DC000760129C0DB01CA018F709927AA27BB279A
:101DD0008A309105A105B10548F4E2E0F0E0EC0F8E
:101DE000FD1FEC0DFD1D805D808308C0E2E0F0E08A
:101DF000EC0FFD1FEC0DFD1D895C8083689413F8CA
:101E000076956795579547951694D1F7BFEFCB1AFE
:101E1000DB0AEB0AFB0A411551056105710591F6D4
:101E20000E94BB0581E0C81AD1080CC0E2E0F0E0D6
:101E3000EC0FFD1FEC0DFD1D80810E943C04A1E014
:101E4000CA1AD108DD2094F761E082E00E9499056A
:101E500085EC90E00E945F04CE0101960E9487030A
:101E60008981833411F08D34B9F7A1960FB6F894B7
:101E7000DEBF0FBECDBFDF91CF91FF90EF90DF901F
:101E8000CF9008950F931F93CF93DF931F92CDB7F9
:101E9000DEB70E94BB0561E081E00E94990583EDF9
:101EA00090E00E945F0461E082E00E94990584EE68
:101EB00090E00E945F042FEF84E39CE0215080407B
:101EC0009040E1F700C000000E94BB0500E010E078
:101ED000CE0101960E94870389819FEC980F99306B
:101EE00020F08D3311F0873499F78734D9F08D3392
:101EF000D1F0013069F4805F0E943C04E12FF0E0F2
:101F0000EA52FE4F8981805F80831F5F00E00BC033
:101F10000E943C04E12FF0E0EA52FE4F8981808369
:101F20001F5F01C001E089818D3391F6E12FF0E060
:101F3000EA52FE4F10820E94BB0586ED91E00E949E
:101F40005F0461E082E00E94990585EC90E00E94C8
:101F50005F04CE0101960E9487038981833411F0CA
:101F60008D34B9F70F90DF91CF911F910F910895A4
:101F70008F929F92AF92BF92CF92DF92EF92FF9299
:101F80000F931F93CF93DF931F92CDB7DEB70E94BD
:101F9000BB0561E081E00E94990583ED90E00E941D
:101FA0005F0461E082E00E94990584EE90E00E9467
:101FB0005F042FEF84E39CE0215080409040E1F7E4
:101FC00000C000000E94BB0510E0C12CCE010196AC
:101FD0000E94870389819FEC980F993020F08D3300
:101FE00011F0873499F78734D9F08D33D1F011305F
:101FF00069F4805F0E943C04EC2DF0E0EA52FE4F51
:102000008981805F8083C39410E00BC00E943C04F0
:10201000EC2DF0E0EA52FE4F89818083C39401C029
:1020200011E089818D3391F6D12CF601EA52FE4FF1
:1020300010820E94BB05E12CF12C812C912C5401C3
:102040003EC0F601EE19FF09EB52FE4F0081802FD2
:102050000E94E506892BB1F010E000531109C70179
:10206000880F991F880F991F02C0000F111F8A95B2
:10207000E2F7012E000C220B330B800E911EA21EE4
:10208000B31E1AC010E0C8010E94011A892BA1F0EA
:1020900007531109C701880F991F880F991F02C0A4
:1020A000000F111F8A95E2F7012E000C220B330B53
:1020B000800E911EA21EB31E2FEFE21AF20AEC143C
:1020C000FD040CF4BECF282D392D4A2D5B2D60E088
:1020D00070E080E090E00E94730461E082E00E9482
:1020E000990585EC90E00E945F04CE0101960E9464
:1020F00087038981833411F08D34B9F70F90DF9114
:10210000CF911F910F91FF90EF90DF90CF90BF90F4
:10211000AF909F908F900895CF93DF93EB0190E065
:102120000E940D1AC0978731910508F095C0865D11
:102130009F4FFC010C949F1785E0E3EFF0E0DE0178
:1021400001900D928A95E1F788C085E0E8EFF0E014
:10215000DE0101900D928A95E1F77FC085E0EDEFF9
:10216000F0E0DE0101900D928A95E1F776C085E0FE
:10217000E2E0F1E0DE0101900D928A95E1F76DC099
:1021800085E0E7E0F1E0DE0101900D928A95E1F74C
:1021900064C085E0ECE0F1E0DE0101900D928A95EB
:1021A000E1F75BC085E0E1E1F1E0DE0101900D9235
:1021B0008A95E1F752C085E0E6E1F1E0DE010190A9
:1021C0000D928A95E1F749C085E0EBE1F1E0DE018F
:1021D00001900D928A95E1F740C085E0E0E2F1E0E0
:1021E000DE0101900D928A95E1F737C085E0E5E2C6
:1021F000F1E0DE0101900D928A95E1F72EC085E0B5
:10220000EAE2F1E0DE0101900D928A95E1F725C046
:1022100085E0EFE2F1E0DE0101900D928A95E1F7B1
:102220001CC085E0E4E3F1E0DE0101900D928A95A7
:10223000E1F713C085E0E9E3F1E0DE0101900D92E2
:102240008A95E1F70AC085E0EEE3F1E0DE01019056
:102250000D928A95E1F701C01882DF91CF91089520
:10226000EF92FF920F931F93CF93DF93CDB7DEB71B
:10227000C658D1090FB6F894DEBF0FBECDBFFE0120
:10228000329680E8DF011D928A95E9F7E058FF4F0A
:1022900085E0DF011D928A95E9F70E94BB0561E0A8
:1022A00081E00E94990583ED90E00E945F0461E067
:1022B00082E00E94990584EE90E00E945F04BFEFE7
:1022C00024E38CE0B15020408040E1F700C00000E2
:1022D0000E94BB0510E0E12CCE0101960E9487030D
:1022E00089819FEC980F993020F08D3311F087345D
:1022F00099F78734D9F08D33D1F0113069F4805FCC
:102300000E943C04EE2DF0E0EA52FE4F8981805F8E
:102310008083E39410E00BC00E943C04EE2DF0E0BB
:10232000EA52FE4F89818083E39401C011E08981E4
:102330008D3391F6F12CF701EA52FE4F10820E9484
:10234000BB0500E010E012C0F801EA52FE4FBE01EA
:102350006E577F4F80810E948C10BE016E577F4F59
:10236000CE0102960E94151A0F5F1F4F0E151F0512
:102370005CF3CE0102960E945F0461E082E00E945D
:10238000990585EC90E00E945F04CE0101960E94C1
:1023900087038981833411F08D34B9F7CA57DF4F31
:1023A0000FB6F894DEBF0FBECDBFDF91CF911F9166
:1023B0000F91FF90EF9008951F93CF93DF931F929B
:1023C000CDB7DEB70E94BB0561E081E00E949905B0
:1023D00083E491E00E945F0461E082E00E9499053D
:1023E00083E591E00E945F04CE0101960E9487037D
:1023F00019818FEC810F8330B8F70E94BB0561E033
:1024000081E00E94990581E691E00E945F0461E00D
:1024100082E00E9499058FE691E00E945F04CE0160
:1024200001960E94870329818FEC820F8330B8F7D1
:1024300080E090E001C00196873E33E09307DCF333
:10244000123399F0133301F1113361F5223339F06E
:10245000233341F0213331F50E94350C23C00E9413
:10246000780C20C00E94120D1DC0223339F0233396
:1024700041F02133B9F40E94060E14C00E94BC0D35
:1024800011C00E94840E0EC0223339F0233341F074
:10249000213341F40E94B80F05C00E94301102C0E0
:1024A0000E94420F61E081E00E9499058CE791E073
:1024B0000E945F0461E082E00E9499058EE891E04D
:1024C0000E945F04CE0101960E94870389818334B4
:1024D00011F08D34B9F781E08093D4010F90DF9132
:1024E000CF911F910895CF93DF931F92CDB7DEB7A1
:1024F0000E94BB0561E081E00E9499058EE991E0B0
:102500000E945F04CE0101960E94870389818F3F5C
:10251000C9F381E08093D4010F90DF91CF910895AA
:102520008091E6018D34D9F446E650E061E083E025
:102530000E94B00180916600811111C09091D50177
:102540008BEA989F812D11248695282F220F820FC8
:10255000981B9F5F9093D50181E08093660008955A
:102560000E94BF000E94C6050E942103F89462E009
:1025700080E00E94460280E00E943402789460E984
:1025800072E180E00E941F0261E081E00E949905F3
:1025900089EA91E00E945F0461E082E00E9499056F
:1025A0008BEB91E00E945F0486EE91E00E9487032E
:1025B0008091E6018F3FC1F38091E6018D34A1F750
:1025C00081E08093D5010E94BB058091D5018230C6
:1025D00039F0833041F08130C1F70E949D08F5CF7A
:1025E0000E94DC11F2CF0E947312EFCFFC01128225
:1025F00013821482158211821082089580E008955A
:10260000FC014281538164817581452B462B472B08
:1026100031F080819181892B21F481E0089581E05E
:10262000089580E00895CF92DF92EF92FF92CF93CA
:10263000DF93EC016A017B010E94FE1281111BC035
:1026400086E090E00E94BE18FC01C082D182E28246
:10265000F3822881398135832483998388838A8111
:102660009B81AC81BD810196A11DB11D8A839B8395
:10267000AC83BD8301C080E0DF91CF91FF90EF90EC
:10268000DF90CF9008950F931F93CF93DF938C012A
:10269000EB01CB010E940013811120C0E881F98178
:1026A00080819181A281B381F80180839183A2838B
:1026B000B3838A819B81AC81BD810197A109B10956
:1026C0008A839B83AC83BD8388819981FC012481AB
:1026D0003581398328830E94561901C080E0DF913B
:1026E000CF911F910F9108950F931F93CF93DF9375
:1026F000EC018B010E94001381110CC0E881F9816B
:1027000080819181A281B381F80180839183A2832A
:10271000B38301C080E0DF91CF911F910F910895A5
:102720000F931F93CF93DF938B01FC01C081D18165
:1027300009C0688179818A819B81F80109950C80A3
:10274000DD81C02D2097A9F7DF91CF911F910F91C7
:102750000895FC0162817381848195810895CF93EE
:10276000DF93EC0113C0FC01248135813983288378
:102770004A815B816C817D814150510961097109F8
:102780004A835B836C837D830E945619888199817B
:10279000009749F7DF91CF9108955058BB27AA279A
:1027A0000E94E5130C945F150E94511538F00E94A9
:1027B000581520F039F49F3F19F426F40C944E1567
:1027C0000EF4E095E7FB0C944815E92F0E94701574
:1027D00058F3BA17620773078407950720F079F456
:1027E000A6F50C9492150EF4E0950B2EBA2FA02DA1
:1027F0000B01B90190010C01CA01A0011124FF27AE
:10280000591B99F0593F50F4503E68F11A16F040A8
:10281000A22F232F342F4427585FF3CF46953795A7
:102820002795A795F0405395C9F77EF41F16BA0B6C
:10283000620B730B840BBAF09150A1F0FF0FBB1F1A
:10284000661F771F881FC2F70EC0BA0F621F731F63
:10285000841F48F4879577956795B795F7959E3FC0
:1028600008F0B0CF9395880F08F09927EE0F979551
:10287000879508950E94241508F481E008950E9428
:1028800053140C945F150E94581558F00E9451156E
:1028900040F029F45F3F29F00C94481551110C9435
:1028A00093150C944E150E94701568F39923B1F39B
:1028B000552391F3951B550BBB27AA276217730766
:1028C000840738F09F5F5F4F220F331F441FAA1FFA
:1028D000A9F335D00E2E3AF0E0E832D091505040B6
:1028E000E695001CCAF72BD0FE2F29D0660F771F64
:1028F000881FBB1F261737074807AB07B0E809F04A
:10290000BB0B802DBF01FF2793585F4F3AF09E3FCE
:10291000510578F00C9448150C9493155F3FE4F33F
:10292000983ED4F3869577956795B795F7959F5F11
:10293000C9F7880F911D9695879597F90895E1E05D
:10294000660F771F881FBB1F621773078407BA07BC
:1029500020F0621B730B840BBA0BEE1F88F7E09517
:1029600008950E94B8146894B1110C9493150895B9
:102970000E94781588F09F5798F0B92F9927B75182
:10298000B0F0E1F0660F771F881F991F1AF0BA9513
:10299000C9F714C0B13091F00E949215B1E00895CA
:1029A0000C949215672F782F8827B85F39F0B93FBC
:1029B000CCF3869577956795B395D9F73EF49095C6
:1029C0008095709561957F4F8F4F9F4F0895E89444
:1029D00009C097FB3EF490958095709561957F4F67
:1029E0008F4F9F4F9923A9F0F92F96E9BB27939515
:1029F000F695879577956795B795F111F8CFFAF425
:102A0000BB0F11F460FF1BC06F5F7F4F8F4F9F4F55
:102A100016C0882311F096E911C0772321F09EE8B3
:102A2000872F762F05C0662371F096E8862F70E019
:102A300060E02AF09A95660F771F881FDAF7880FF3
:102A40009695879597F90895990F0008550FAA0B49
:102A5000E0E8FEEF16161706E807F907C0F01216B1
:102A60001306E407F50798F0621B730B840B950BB4
:102A700039F40A2661F0232B242B252B21F4089509
:102A80000A2609F4A140A6958FEF811D811D0895A6
:102A900097F99F6780E870E060E008959FEF80EC11
:102AA000089500240A9416161706180609060895B4
:102AB00000240A9412161306140605060895092E1A
:102AC0000394000C11F4882352F0BB0F40F4BF2B89
:102AD00011F460FF04C06F5F7F4F8F4F9F4F0895C9
:102AE00057FD9058440F551F59F05F3F71F04795BF
:102AF000880F97FB991F61F09F3F79F087950895A4
:102B0000121613061406551FF2CF4695F1DF08C0C2
:102B1000161617061806991FF1CF869571056105DF
:102B200008940895E894BB2766277727CB0197F987
:102B300008950E94AC150C945F150E94511538F051
:102B40000E94581520F0952311F00C9448150C9410
:102B50004E1511240C9493150E94701570F3959FD7
:102B6000C1F3950F50E0551F629FF001729FBB2784
:102B7000F00DB11D639FAA27F00DB11DAA1F649F20
:102B80006627B00DA11D661F829F2227B00DA11DD3
:102B9000621F739FB00DA11D621F839FA00D611D59
:102BA000221F749F3327A00D611D231F849F600D7A
:102BB000211D822F762F6A2F11249F5750409AF0A3
:102BC000F1F088234AF0EE0FFF1FBB1F661F771F2F
:102BD000881F91505040A9F79E3F510580F00C94FA
:102BE00048150C9493155F3FE4F3983ED4F3869513
:102BF00077956795B795F795E7959F5FC1F7FE2B9A
:102C0000880F911D9695879597F90895FA01EE0F13
:102C1000FF1F309621053105A1F16115710561F4A1
:102C20008038BFE39B0749F168949038810561F0D3
:102C30008038BFEF9B0741F099234AF5FF3FE1053C
:102C40003105210519F1E8940894E795D901AA23E3
:102C500029F4AB2FBE2FF85FD0F310C0FF5F70F4E4
:102C6000A695E0F7F73950F019F0FF3A38F49F775E
:102C70009F930DD00F9007FC9058089546F00C9448
:102C80004E1560E070E080E89FE308954FE79F777E
:102C90005F934F933F932F930E9401172F913F9182
:102CA0004F915F910E9499150C945E1629F416F0CD
:102CB0000C9448150C9492150C944E150E9478159E
:102CC000A8F39638A0F707F80F92E8942BE33AEAB6
:102CD00048EB5FE70E94AF150F920F920F924DB72E
:102CE0005EB70F920E944917E2E8F0E00E9490164A
:102CF0004F915F91EF91FF91E595EE1FFF1F49F016
:102D0000FE57E0684427EE0F441FFA95E1F741951E
:102D1000550B0E94C3160F9007FE0C94B71608952A
:102D2000DF93CF931F930F93FF92EF92DF927B017C
:102D30008C01689406C0DA2EEF010E94AC15FE01EA
:102D4000E894A5912591359145915591A6F3EF0110
:102D50000E94E513FE019701A801DA9469F7DF905C
:102D6000EF90FF900F911F91CF91DF9108959B01FC
:102D7000AC0160E070E080E89FE30C943F140C9499
:102D800048150C947D170E947815D8F39923C9F340
:102D9000940F511DA3F39150504094F059F08823A3
:102DA00032F0660F771F881F91505040C1F79E3F49
:102DB00051052CF7880F911D9695879597F90895E1
:102DC0005F3FACF0983E9CF0BB2786957795679562
:102DD000B79508F4B1609395C1F7BB0F58F711F49C
:102DE00060FFE8CF6F5F7F4F8F4F9F4FE3CF0C9413
:102DF000931516F00C947D170C944E1568940C9452
:102E000048150E947815A8F39923C1F3AEF3DF9318
:102E1000CF931F930F93FF92C92FDD2788232AF0AA
:102E20002197660F771F881FDAF720E030E040E82F
:102E30005FEB9FE3883920F0803E38F021968F7752
:102E40000E94CE13EAEAF0E004C00E94CE13E7ED40
:102E5000F0E00E9490168B01BE01EC01FB2E6F5733
:102E600071097595771F880B990B0E94E91428E169
:102E700032E741E35FE30E94AC15AF2D9801AE014C
:102E8000FF900F911F91CF91DF910E94E5130C9459
:102E90005F15FA01DC01AA0FBB1F9B01AC01BF57F4
:102EA00028F4222733274427507820C0B75190F4C4
:102EB000AB2F0024469537952795011CA395D2F397
:102EC000002071F0220F331F441FB395DAF30ED0A8
:102ED0000C94CD1361307105A0E88A07B94630F42F
:102EE0009B01AC016627772788279078309621F0E0
:102EF000208331834283538308959F3F31F0915063
:102F000020F4879577956795B795880F911D9695CD
:102F1000879597F9089597FB072E16F4009407D02C
:102F200077FD09D00E94AA1807FC05D03EF49095C1
:102F300081959F4F0895709561957F4F0895EE0F8D
:102F4000FF1F0590F491E02D0994689401C0E89466
:102F5000F92FF12B12F00C94D917A0E0B0E0E3EBBD
:102F6000F7E10C944B18092E059422F40E943518B1
:102F7000112392F4F0E80F26FFEFE094F09400950F
:102F80001095B094C094D094A194BF0ACF0ADF0AE0
:102F9000EF0AFF0A0F0B1F0B0E94E41707FC0E94A9
:102FA0003518CDB7DEB7ECE00C946718689401C013
:102FB000E8948F929F92CF93DF930E94E417DF9162
:102FC000CF919F908F90089588249924F401E40173
:102FD000B0E49F93AA279A158B049C04ED05FE0587
:102FE000CF05D007A10798F4AD2FDC2FCF2FFE2FF0
:102FF000E92D982C892E982F872F762F652F542F07
:10300000432F322F2227B85031F7BF9127C01B2EF4
:10301000BF91BB27220F331F441F551F661F771F09
:10302000881F991F881C991CEE1FFF1FCC1FDD1FD6
:10303000AA1FBB1F8A149B04EC05FD05CE05DF0506
:10304000A007B10748F08A189B08EC09FD09CE09D2
:10305000DF09A00BB10B21601A94E1F62EF4940164
:10306000AF01BE01CD01000C08956095709580956B
:10307000909530954095509521953F4F4F4F5F4F1C
:103080006F4F7F4F8F4F9F4F08952F923F924F92D8
:103090005F926F927F928F929F92AF92BF92CF92E8
:1030A000DF92EF92FF920F931F93CF93DF93CDB7F1
:1030B000DEB7CA1BDB0B0FB6F894DEBF0FBECDBF69
:1030C00009942A88398848885F846E847D848C843A
:1030D0009B84AA84B984C884DF80EE80FD800C8143
:1030E0001B81AA81B981CE0FD11D0FB6F894DEBF26
:1030F0000FBECDBFED0108950F93083090F0982FCB
:10310000872F762F652F542F432F322F22270850D9
:10311000F4CF220F331F441F551F661F771F881FD0
:10312000991F0A95B2F70F9108952A0D3B1D4C1D6A
:103130005D1D6E1D7F1D801F911F08950024A7FD3A
:1031400000942A173005400550056005700580057C
:1031500090050895AA1BBB1B51E107C0AA1FBB1F06
:10316000A617B70710F0A61BB70B881F991F5A9513
:10317000A9F780959095BC01CD0108950F931F93F9
:10318000CF93DF938230910510F482E090E0E091DC
:10319000E901F091EA0120E030E0A0E0B0E03097F2
:1031A00019F1408151810281138148175907C8F0F4
:1031B0008417950769F4109731F012960C931297C3
:1031C00013961C9327C00093E9011093EA0122C0D3
:1031D0002115310519F04217530718F49A01BD0162
:1031E000EF01DF01F801DBCF21153105F9F0281BD4
:1031F000390B2430310580F48A819B81611571057A
:1032000021F0FB019383828304C09093EA018093B1
:10321000E901FE01329644C0FE01E20FF31F8193E3
:10322000919322503109398328833AC02091E701D4
:103230003091E801232B41F420916200309163002A
:103240003093E8012093E701209160003091610004
:103250002115310541F42DB73EB7409164005091DE
:103260006500241B350BE091E701F091E801E217BE
:10327000F307A0F42E1B3F0B2817390778F0AC0199
:103280004E5F5F4F2417350748F04E0F5F1F509376
:10329000E8014093E7018193919302C0E0E0F0E000
:1032A000CF01DF91CF911F910F910895CF93DF93BD
:1032B000009709F481C0FC01329713821282A09119
:1032C000E901B091EA01109781F420813181820FE8
:1032D000931F2091E7013091E8012817390751F534
:1032E000F093E801E093E70167C0ED0120E030E0F2
:1032F000CE17DF0740F44A815B819E0141155105DD
:10330000F1F0EA01F5CFD383C28340815181840F6C
:10331000951FC817D90759F488819981840F951F83
:103320000296918380838A819B8193838283211576
:10333000310529F4F093EA01E093E9013DC0E90188
:10334000FB83EA8349915991C40FD51FEC17FD0700
:1033500061F480819181840F951F0296E901998320
:103360008883828193819B838A83E0E0F0E01296D8
:103370008D919C911397009719F0FD01DC01F7CF17
:103380008D919C9111979D012E5F3F4F820F931F4E
:103390002091E7013091E8012817390769F4309747
:1033A00029F41092EA011092E90102C013821282FC
:1033B000B093E801A093E701DF91CF9108956627CC
:1033C00077270C942A1CFC0188279927E8942191DF
:1033D0002032E9F3293010F02E30C8F32B3241F0BF
:1033E0002D3239F4689404C00E942B1A820F911D6B
:1033F000219120532A30C0F31EF4909581959F4F60
:10340000089591110C94781D80538A5028F0865CA1
:10341000806281568650B0F70895911108958156C3
:103420008A5108F4805285580895FB01DC010D9003
:103430000020E9F7119701900D920020E1F708951F
:10344000FC018191861721F08823D9F799270895E7
:103450003197CF0108957AE0979F902D879F802D17
:10346000910D11240895A0E0B0E0E9E3FAE10C9495
:103470005518AE014B5F5F4FFA0161917191AF0139
:103480008091ED019091EE010E94491AE2E00C94C6
:103490007118ABE0B0E0EFE4FAE10C9445186C0170
:1034A0007B018A01FC0117821682838181FFCCC1D6
:1034B000CE0101963C01F6019381F70193FD8591C0
:1034C00093FF81917F01882309F4BAC1853239F4D1
:1034D00093FD859193FF81917F01853229F4B60197
:1034E00090E00E94B21DE7CF912C212C312CFFE1FE
:1034F000F315D8F08B3279F038F4803279F08332DA
:10350000A1F4232D20611DC08D3261F0803369F458
:10351000232D216016C0832D8260382EE32DE460B8
:103520003E2E2AC0F32DF8601DC037FC2DC020EDC3
:10353000280F2A3040F08E32B9F436FC81C1232D99
:103540002064322E19C036FE06C08AE0989E200DF7
:103550001124922E11C0EAE02E9E200D1124222E5D
:10356000F32DF0623F2E08C08C3621F4832D806845
:10357000382E02C0883641F4F70193FD859193FF00
:1035800081917F018111B3CF982F9F7D9554933006
:1035900028F40C5F1F4F9FE399830DC0833631F0F1
:1035A000833771F0833509F059C021C0F80180815B
:1035B00089830E5F1F4F88248394912C530113C07D
:1035C0002801F2E04F0E511CF801A080B18036FEB8
:1035D00003C0692D70E002C06FEF7FEFC5010E944C
:1035E000A71D4C018201F32DFF773F2E16C0280145
:1035F00022E0420E511CF801A080B18036FE03C0CB
:10360000692D70E002C06FEF7FEFC5010E949C1D25
:103610004C01F32DF0683F2E820133FC1BC0822D3C
:1036200090E088169906B0F4B60180E290E00E941E
:10363000B21D2A94F4CFF50137FC859137FE8191B4
:103640005F01B60190E00E94B21D21102A9421E092
:10365000821A91088114910471F7E8C0843611F040
:10366000893641F5F80137FE07C06081718182819A
:1036700093810C5F1F4F08C060817181072E000C81
:10368000880B990B0E5F1F4FF32DFF763F2E97FF90
:1036900009C090958095709561957F4F8F4F9F4F92
:1036A000F0683F2E2AE030E0A3010E94EE1D882E34
:1036B000861845C0853731F4232D2F7EB22E2AE09F
:1036C00030E025C0932D997FB92E8F36C1F018F4C4
:1036D000883579F0B5C0803719F0883721F0B0C04F
:1036E000E92FE061BE2EB4FE0DC0FB2DF460BF2EAD
:1036F00009C034FE0AC0292F2660B22E06C028E079
:1037000030E005C020E130E002C020E132E0F80105
:10371000B7FE07C060817181828193810C5F1F4F6A
:1037200006C06081718180E090E00E5F1F4FA301B1
:103730000E94EE1D882E8618FB2DFF773F2E36FE49
:103740000DC0232D2E7FA22E891458F434FE0BC0F9
:1037500032FC09C0832D8E7EA82E05C0B82CA32C68
:1037600003C0B82C01C0B92CA4FE0FC0FE01E80DA7
:10377000F11D8081803321F49A2D997EA92E09C0F4
:10378000A2FE06C0B394B39404C08A2D867809F0D3
:10379000B394A3FC11C0A0FE06C0B21488F4280C98
:1037A000922C9B180EC0B21460F4B60180E290E037
:1037B0000E94B21DB394F7CFB21418F42B1802C0B4
:1037C000982C212CA4FE10C0B60180E390E00E944A
:1037D000B21DA2FE17C0A1FC03C088E790E002C0A2
:1037E00088E590E0B6010CC08A2D867859F0A1FEDC
:1037F00002C08BE201C080E2A7FC8DE2B60190E03E
:103800000E94B21D891438F4B60180E390E00E9452
:10381000B21D9A94F7CF8A94F301E80DF11D8081CF
:10382000B60190E00E94B21D8110F5CF222009F46C
:1038300042CEB60180E290E00E94B21D2A94F6CFFB
:10384000F6018681978102C08FEF9FEF2B96E2E110
:103850000C946118A0E0B0E0E0E3FCE10C944B189C
:10386000EC016B016115710519F0FB0191838083F7
:103870007E01FFEFEF1AFF0A0881802F90E00E947F
:103880007B1D892B11F0E701F3CF0D3239F47E0156
:1038900082E0E80EF11C098111E008C00B3229F426
:1038A0007E0192E0E90EF11C098110E0E701219709
:1038B00043E050E06CE071E0CE010E94841D892B52
:1038C000C1F4239645E050E067E071E0CE010E942C
:1038D000841D892B09F42596C114D10419F0F60131
:1038E000D183C0831111F6C060E070E080E89FE7EB
:1038F000FAC043E050E064E071E0CE010E94841D14
:10390000892B59F4C114D10409F4E9C0F2E0EF0E97
:10391000F11CF601F182E082E2C020E030E0A90172
:10392000C0E0D0E0F70180EDA82EA00E89E08A1556
:1039300030F1912F9260B92E812F887012FF04C050
:10394000811124C0219622C081112197A5E0B0E009
:103950000E944C1EDC01CB01880F991FAA1FBB1FC0
:103960009C01AD012A0D311D411D511D283989E9E8
:103970003807480789E1580748F0166006C09EEFEF
:10398000A9120AC013FD40C01860B12E8FEFE81ACB
:10399000F80A00811B2DC6CF802F8F7D8534A1F5BD
:1039A00080818D3211F4106106C08B3221F0319686
:1039B00061E070E004C08181329662E070E0805383
:1039C0008A3018F0E61BF70B1FC060E070E060382B
:1039D0009CE079075CF4DB01AA0FBB1FAA0FBB1F99
:1039E0006A0F7B1F660F771F680F711D3196DF010D
:1039F00011978C9180538A3050F314FF03C0719556
:103A000061957109C60FD71F11FF08C0C114D104F9
:103A100029F0CF010197F60191838083CA01B90192
:103A20000E94E714212F2370233019F04B015C0111
:103A300006C04B015C01B7FAB094B7F8B09420E02F
:103A400030E0A901C501B4010E943A14882309F4A9
:103A50003EC0D7FF06C0D195C195D10903E211E060
:103A600002C00BE311E06801F8E1CF1AD10890E23F
:103A7000E92EF12CCE15DF0574F0F8012591359172
:103A800045915491C501B4010E9499154B015C0107
:103A9000CE19DF09EFCF04501109F594E7940C1506
:103AA0001D0541F78A2D880F8B2D881F8F3F49F008
:103AB00020E030E0A901C501B4010E943A1481114F
:103AC00006C082E290E09093F2018093F101C5017B
:103AD000B40109C060E070E080E89FEF04C060E0DE
:103AE00070E080EC9FE7CDB7DEB7ECE00C94671890
:103AF00099278827089591110C94781D803219F028
:103B000089508550C8F70895FB01DC0141505040B1
:103B100088F08D9181341CF08B350CF4805E6591BA
:103B200061341CF06B350CF4605E861B611171F31F
:103B3000990B0895881BFCCFFC01059061507040E3
:103B40000110D8F7809590958E0F9F1F0895FC0166
:103B50006150704001900110D8F7809590958E0FBC
:103B60009F1F08950F931F93CF93DF93FB01238132
:103B700021FD03C08FEF9FEF2CC022FF16C04681AE
:103B80005781248135814217530744F4A081B181C4
:103B90009D012F5F3F4F318320838C932681378196
:103BA0002F5F3F4F3783268314C08B01EC01FB014D
:103BB0000084F185E02D0995892BE1F6D801169650
:103BC0008D919C911797019617969C938E931697BB
:103BD000CE01DF91CF911F910F910895FA01AA278D
:103BE000283051F1203181F1E8946F936E7F6E5F40
:103BF0007F4F8F4F9F4FAF4FB1E03ED0B4E03CD0EE
:103C0000670F781F891F9A1FA11D680F791F8A1FD0
:103C1000911DA11D6A0F711D811D911DA11D20D037
:103C200009F468943F912AE0269F11243019305DF1
:103C30003193DEF6CF010895462F4770405D4193E2
:103C4000B3E00FD0C9F7F6CF462F4F70405D4A332F
:103C500018F0495D31FD4052419302D0A9F7EACFF7
:103C6000B4E0A6959795879577956795BA95C9F726
:103C700000976105710508959B01AC010A2E069419
:103C80005795479537952795BA95C9F7620F731FD2
:103C9000841F951FA01D08950E94571EA59F900D7B
:103CA000B49F900DA49F800D911D11240895A29F93
:103CB000B001B39FC001A39F700D811D1124911D00
:103CC000B29F700D811D1124911D0895F894FFCFAE
:103CD0000000F301200001000102030405060700B3
:103CE00001203738392A2F433435362D5E3E3132A4
:103CF000332B473C302E3D2B4D2566202000535959
:103D00004E544158204552524F5200505245535341
:103D1000204143004D415448204552524F5200200B
:103D20002020204F564552464C4F57007265737500
:103D30006C743D2000432D46696E6973682072657E
:103D4000616400472D204265666F7265204E554DB7
:103D500020746F00577269746520416C70686162ED
:103D60006574003030303000303030310030303168
:103D700030003030313100303130300030313031CE
:103D800000303131300030313131003130303000ED
:103D900031303031003130313000313031310031AB
:103DA000313030003131303100313131300031319A
:103DB000313100636F6E766572742066726F6D20AC
:103DC0003A20003144202020324220202033482055
:103DD00000636F6E7665727420746F203A20003134
:103DE000442020203242202020334800432D206DE3
:103DF0006F646520636F6E74696E756520004D2D6C
:103E0000206368616E6765206D6F6465200047619F
:103E10006D65206D6F6465200057656C636F6D651F
:103E2000207072657373284D292000312D43414C59
:0E3E300020322D4E554D20332D474D200000E1
:00000001FF
