:100000000C9489000C948F020C94B8020C94E102B9
:100010000C94A6000C94A6000C94A6000C94A600C8
:100020000C94A6000C94A6000C94A6000C94A600B8
:100030000C94A6000C94A6000C94A6000C94A600A8
:100040000C94A6000C94A6000C94A6000C94A60098
:100050000C94A60007634236B79BD8A71A39685696
:1000600018AEBAAB558C1D3CB7CC5763BD6DEDFDDA
:10007000753EF6177231BF000000803F0800000097
:10008000BE922449123EABAAAA2ABECDCCCC4C3E8D
:1000900000000080BEABAAAAAA3E00000000BF007C
:1000A0000000803F0000000000084178D3BB438778
:1000B000D1133D190E3CC3BD4282AD2B3E68EC828C
:1000C00076BED98FE1A93E4C80EFFFBE01C4FF7F11
:1000D0003F00000000004E414E494E495459494EE0
:1000E00046CDCCCC3D0AD7233C17B7D13877CC2BA3
:1000F000329595E6241FB14F0A000020410000C848
:100100004200401C4620BCBE4CCA1B0E5AAEC59DC8
:10011000740011241FBECFE5D8E0DEBFCDBF10E0D4
:10012000A0E6B0E0ECE7FBE202C005900D92AA3E2B
:10013000B107D9F720E0AAEEB0E001C01D92AD3FB3
:10014000B207E1F70E94120B0C94BC150C9400004E
:100150008FEF8ABB87BB14BA98EF91BB1BBA18BA52
:1001600085BB87E082BB81E00895843008F067C0DA
:10017000683008F066C0423008F065C08130E9F0B0
:1001800030F0823081F1833009F443C05EC081E0F9
:1001900090E0062E02C0880F991F0A94E2F780951E
:1001A0002AB32823842F90E002C0880F991F6A95F4
:1001B000E2F7822B8ABB81E0089521E030E0062E31
:1001C00002C0220F331F0A94E2F7209587B3282339
:1001D000842F90E002C0880F991F6A95E2F7822B66
:1001E00087BB81E0089521E030E0062E02C0220F97
:1001F000331F0A94E2F7209584B32823842F90E0DC
:1002000002C0880F991F6A95E2F7822B84BB81E0B8
:10021000089521E030E0062E02C0220F331F0A9419
:10022000E2F7209581B32823842F90E002C0880F45
:10023000991F6A95E2F7822B81BB81E0089583E0E4
:10024000089583E0089583E0089581E0089584305F
:1002500008F067C0683008F066C0423008F065C03A
:100260008130E9F030F0823081F1833009F443C00D
:100270005EC081E090E0062E02C0880F991F0A94AC
:10028000E2F780952BB32823842F90E002C0880FDB
:10029000991F6A95E2F7822B8BBB81E0089521E0DC
:1002A00030E0062E02C0220F331F0A94E2F7209599
:1002B00088B32823842F90E002C0880F991F6A9585
:1002C000E2F7822B88BB81E0089521E030E0062E22
:1002D00002C0220F331F0A94E2F7209585B328232A
:1002E000842F90E002C0880F991F6A95E2F7822B55
:1002F00085BB81E0089521E030E0062E02C0220F88
:10030000331F0A94E2F7209582B32823842F90E0CC
:1003100002C0880F991F6A95E2F7822B82BB81E0A9
:10032000089583E0089583E0089583E0089581E0CF
:10033000089541155105E1F18430E0F56830E0F5AC
:10034000813091F028F08230D9F0833029F136C025
:1003500089B390E002C0959587956A95E2F7817020
:10036000FA01808381E0089586B390E002C09595FC
:1003700087956A95E2F78170FA01808381E008959C
:1003800083B390E002C0959587956A95E2F78170F6
:10039000FA01808381E0089580B390E002C09595D2
:1003A00087956A95E2F78170FA01808381E008956C
:1003B00082E0089583E0089583E0089581E0089540
:1003C000843010F56295607F813061F028F08230D2
:1003D00079F0833099F01AC08BB38F70682B6BBBA8
:1003E00081E0089588B38F70682B68BB81E0089521
:1003F00085B38F70682B65BB81E0089582B38F70E1
:10040000682B62BB81E0089583E0089581E0089540
:10041000813049F018F0823059F008957093EF0060
:100420006093EE0008957093ED006093EC000895E2
:100430007093EB006093EA000895813041F018F06A
:10044000823049F008958BB780648BBF08958BB7D5
:1004500080688BBF08958BB780628BBF0895813011
:1004600049F120F0823009F449C00895613069F003
:1004700028F0623089F06330B1F0089585B78E7F3F
:1004800085BF85B78D7F85BF089585B7816085BF9E
:1004900085B78D7F85BF089585B78E7F85BF85B76A
:1004A000826085BF089585B7816085BF85B782600A
:1004B00085BF0895613069F028F0623089F06330BB
:1004C000B1F0089585B78B7F85BF85B7877F85BFDE
:1004D000089585B7846085BF85B7877F85BF0895F8
:1004E00085B78B7F85BF85B7886085BF089585B741
:1004F000846085BF85B7886085BF0895623019F034
:10050000633029F008C084B78F7B84BF089584B717
:10051000806484BF089584B78F7B84BF08951F9241
:100520000F920FB60F9211242F933F934F935F9327
:100530006F937F938F939F93AF93BF93EF93FF93AB
:10054000E091EE00F091EF00309709F00995FF91EE
:10055000EF91BF91AF919F918F917F916F915F913B
:100560004F913F912F910F900FBE0F901F901895B4
:100570001F920F920FB60F9211242F933F934F9318
:100580005F936F937F938F939F93AF93BF93EF93FB
:10059000FF93E091EC00F091ED00309709F00995A0
:1005A000FF91EF91BF91AF919F918F917F916F914B
:1005B0005F914F913F912F910F900FBE0F901F9021
:1005C00018951F920F920FB60F9211242F933F93FD
:1005D0004F935F936F937F938F939F93AF93BF934B
:1005E000EF93FF93E091EA00F091EB00309709F070
:1005F0000995FF91EF91BF91AF919F918F917F915D
:100600006F915F914F913F912F910F900FBE0F907F
:100610001F90189540E060E082E00E94B50040E045
:1006200061E082E00E94B50040E062E082E00E946A
:10063000B50040E063E082E00E94B50041E060E088
:1006400082E00E94270141E061E082E00E942701F0
:1006500041E062E082E00E94270141E063E082E045
:100660000E94270141E064E082E00E94B50041E081
:1006700065E082E00E94B50041E066E082E00E9411
:10068000B50041E067E082E00E94B50041E064E02F
:1006900082E00E94270141E065E082E00E9427019C
:1006A00041E066E082E00E94270141E067E082E0ED
:1006B0000E94270141E060E083E00E94B50041E034
:1006C00061E083E00E94B50041E060E083E00E94C9
:1006D000270141E061E083E00E94270181E0089565
:1006E000CF92DF92EF92FF920F931F93CF93DF93FE
:1006F0001F92CDB7DEB76C018FEFF601808300E06B
:100700005CC0043058F4E02FF0E0E559FF4F40E0C2
:10071000608182E00E94270110E037C0E02FF0E006
:10072000E559FF4F40E0608183E00E942701F4CF4C
:10073000E12EF12CF701E959FF4FAE014F5F5F4FFA
:10074000608182E00E949901898181111DC0F701B9
:10075000EE0FFF1FEE0DFF1DEE0FFF1FEF58FF4FB7
:10076000E00FF11D8081F60180830AC0AE014F5F6A
:100770005F4FF701E959FF4F608182E00E949901C4
:100780008981882399F31CC01F5F143088F20430DC
:1007900050F4E02FF0E0E559FF4F41E0608182E046
:1007A0000E94270109C0E02FF0E0E559FF4F41E02A
:1007B000608183E00E9427010F5F063008F4A1CF1B
:1007C00081E00F90DF91CF911F910F91FF90EF90FB
:1007D000DF90CF90089541E062E081E00E94270120
:1007E0008FEC97E00197F1F700C0000040E062E075
:1007F00081E00E9427018FEC97E00197F1F700C09C
:1008000000000895CF93C82F40E060E081E00E948F
:10081000270140E061E081E00E9427016C2F629592
:100820006F7080E00E94E0010E94EB036C2F80E07B
:100830000E94E0010E94EB038FEC97E00197F1F733
:1008400000C0000081E0CF910895CF93C82F41E010
:1008500060E081E00E94270140E061E081E00E94C9
:1008600027016C2F62956F7080E00E94E0010E946A
:10087000EB036C2F80E00E94E0010E94EB038FEC01
:1008800097E00197F1F700C0000081E0CF91089553
:100890000F931F93CF938C01C0E003C00E942504E7
:1008A000CF5FF801EC0FF11D80818111F7CF81E05E
:1008B000CF911F910F9108959FEF980F923070F490
:1008C000613170F4662371F0813019F42FE7260F3F
:1008D0000AC0823041F42FEB260F05C020E803C088
:1008E00020E801C020E8822F0E9402048FEC97E0EC
:1008F0000197F1F700C0000081E0089581E00E94B7
:1009000002048FE99FE00197F1F700C0000081E049
:1009100008952FE788E391E0215080409040E1F76F
:1009200000C0000041E064E080E00E94B50041E0CA
:1009300065E080E00E94B50041E066E080E00E9452
:10094000B50041E067E080E00E94B50041E060E072
:1009500081E00E94B50041E061E081E00E94B500C5
:1009600041E062E081E00E94B50082E00E94020462
:100970008FE59AEE0197F1F700C0000088E20E942F
:1009800002048FEC97E00197F1F700C000008CE0C3
:100990000E9402048FEC97E00197F1F700C000007D
:1009A0000E947E0486E00E9402048FEC97E001978B
:1009B000F1F700C0000081E008959F938F937F932B
:1009C0006F9389E890E09F938F930E9489110F9015
:1009D0000F900F900F900F900F9008956150710934
:1009E00020E030E00EC0DC01A20FB31F4C91FC01EF
:1009F000E60FF71F50815C9340832F5F3F4F61509C
:100A00007109261737077CF308950F931F93CF932F
:100A1000DF938B019A01C0E0D0E00CC0F801EC0F2D
:100A2000FD1F6AE070E00E94EF0F805D8083862FDB
:100A3000972F2196009791F706C0F801EC0FFD1F44
:100A400080E380832196C217D307BCF3BE01C8019F
:100A50000E94EE04F801EC0FFD1F1082CE01DF9121
:100A6000CF911F910F9108954F925F926F927F9255
:100A70008F929F92AF92BF92CF92DF92EF92FF92AE
:100A80000F931F93CF93DF936B017C018A01E901E0
:100A900020E030E0A9010E949E0C882324F4F7FA9C
:100AA000F094F7F8F094C701B6010E94150D4B01C0
:100AB0005C01072E000C880B990B0E944D0D9B01C9
:100AC000AC01C701B6010E94310C2B013C0140E092
:100AD00050E0B801C4010E9405057C01209739F15E
:100AE000F801E80FF91F8EE28083BE010D2E000C85
:100AF000880B990B0E944D0D9B01AC0160E070E0EA
:100B000080E291E40E946A0E9B01AC01C301B20134
:100B10000E94FD0D2FEFE21AF20AE00EF11E0E9474
:100B2000150DDC01CB01AE01B7010E940505DF9177
:100B3000CF911F910F91FF90EF90DF90CF90BF90DA
:100B4000AF909F908F907F906F905F904F9008959F
:100B5000805391E08A3008F090E0892F90E008956A
:100B60008B3259F08D3261F08A3269F08F3271F038
:100B70008E3579F481E090E0089581E090E0089569
:100B800081E090E0089581E090E0089581E090E0B8
:100B9000089580E090E008956E3599F06A3211F082
:100BA0006F3231F481E02E3509F480E090E0089551
:100BB0002E3551F02A3259F02F3261F480E090E066
:100BC000089581E090E0089580E090E0089580E04D
:100BD00090E0089581E090E008957F928F929F9237
:100BE000AF92BF92CF92DF92EF92FF920F931F933B
:100BF000CF93DF93CDB7DEB72E970FB6F894DEBF55
:100C00000FBECDBF8C016B01CE0101960E945A0B25
:100C1000F80180818D3229F40F5F1F4F7724739480
:100C200001C0712CE12C8CC08F2D0E94A805892B4E
:100C300019F4FEE2FF122BC0C8010E946F114B0194
:100C40005C0121E0721206C0DC01CB01B0584C01FE
:100C50005D01712C81E0E81208C0B7FAB094B7F8D2
:100C6000B094E12C02C00F5F1F4FF801F0808F2D70
:100C70000E94A805892BB9F7FEE2FF16A1F30150E7
:100C80001109B501A401C6010E94770B57C08F2D31
:100C90000E94B005892B09F451C08F2CBE01695FF9
:100CA0007F4FCE0101960E94D80BF80131978081C9
:100CB0000E94B005009731F02BE2F21203C00F5FE3
:100CC0001F4F3EC0892BE9F08DE2F8121AC00F5F6A
:100CD0001F4FEE24E39434C0BE016F5F7F4FCE01FF
:100CE0000B960E94A70B4B855C856D857E85C601A2
:100CF0000E94770BBE01695F7F4FCE0101960E9473
:100D0000D80BCE0101960E94640B81110AC06F813D
:100D1000788589859A85A50194010E94CC05892B47
:100D2000D9F6B501A401CE0101960E94770BBE0150
:100D3000695F7F4FCE0101960E94D80B0F5F1F4F56
:100D4000F801F080F11070CF0EC0BE016F5F7F4FD1
:100D5000CE010B960E94A70B4B855C856D857E8529
:100D6000C6010E94770BCE0101960E94640B882376
:100D700061F32E960FB6F894DEBF0FBECDBFDF91A4
:100D8000CF911F910F91FF90EF90DF90CF90BF9088
:100D9000AF909F908F907F900895EF92EE2DED325F
:100DA00071F028F4EA3271F0EB3231F014C0EF3216
:100DB00061F0EE3569F00FC00E94320C0DC00E9448
:100DC000310C0AC00E94FD0D07C00E94A30C04C094
:100DD0000E946A0E01C004C0562F472F382F292FBA
:100DE000652F742F832F922FEF900895CF92DF926B
:100DF000EF92FF920F931F93CF93DF93CDB7DEB7A0
:100E000062970FB6F894DEBF0FBECDBF6C01CE0166
:100E100001960E945A0B35C0B601CE0107960E947A
:100E2000A70B8F810E94B005892B49F44F8158850B
:100E300069857A85CE0101960E94770B22C0BE019A
:100E40006F5F7F4FCE010B960E94A70BBE016F5FB5
:100E50007F4FCE010F960E94A70BEF80F884098583
:100E60001A852B853C854D855E856F8578898989B6
:100E70009A890E94CD06AB01BC01CE0101960E9469
:100E8000770BC6010E94640B882331F2BE016F5FAD
:100E90007F4FCE0107960E94A70B6F8178858985C9
:100EA0009A8562960FB6F894DEBF0FBECDBFDF9174
:100EB000CF911F910F91FF90EF90DF90CF90089509
:100EC0008F929F92AF92BF92CF92DF92EF92FF925A
:100ED0000F931F93CF93DF93CDB7DEB7E5970FB690
:100EE000F894DEBF0FBECDBFFE01329680E1DF0178
:100EF0001D928A95E9F7CE018A960E945A0BCE017F
:100F0000C0960E945A0B8EE00E94020461E081E0CC
:100F10000E945C0400E010E0CE0101960E94700384
:100F200089818F3FC9F3803209F466C08D3409F49A
:100F300063C08E3309F460C08C3309F45DC08D3317
:100F400009F45AC0873409F457C0833409F454C0F3
:100F500011112FC08B3241F08D3231F08A3221F0E5
:100F60008F3211F08E3529F50E947E04DE015296F3
:100F7000FD0101900020E9F731971E2F1A1B20E098
:100F800011C0822F90E0E2E1F0E0EC0FFD1FE80FCE
:100F9000F91F3081E2E0F0E0EC0FFD1FE80FF91FD0
:100FA00030832F5F211768F3CE0142960E944804D8
:100FB00010C011110EC00E947E0480E008C0E2E063
:100FC000F0E0EC0FFD1FE80FF11D10828F5F803104
:100FD000B0F389810E94250481E0810FE2E0F0E016
:100FE000EC0FFD1FE10FF11D99819083803108F016
:100FF000AFC0182F00E0B0C08032C1F40E947E0460
:10100000CE018A960E94130CCE01C0960E94130C4A
:1010100080E008C0E2E0F0E0EC0FFD1FE80FF11DFA
:1010200010828F5F8031B0F310E096C08E3391F55F
:10103000212F30E0F901319682E090E08C0F9D1F66
:10104000E80FF91F8081882361F0013051F4FF24FB
:10105000F394F10E62E0610F81E00E945C041F2DA9
:101060007BC0811179C0013009F076C0E2E0F0E088
:10107000EC0FFD1FE20FF31F8081882309F46CC081
:10108000FF24F394F10E62E0610F81E00E945C04A2
:101090001F2D62C08C3361F4112309F45CC00FEF83
:1010A000010F612F81E00E945C04102F01E054C009
:1010B000833409F04AC0112309F44EC0DD24DA94C8
:1010C000D10EED2CF12CF7013196A2E0B0E0AC0F7F
:1010D000BD1FEA0FFB1F8081811114C0612F81E0C9
:1010E0000E945C0480E00E942504E2E0F0E0EC0F46
:1010F000FD1FEE0DFF1D1082612F81E00E945C0438
:101100001D2D2AC080E00E942504E2E0F0E0EC0FF3
:10111000FD1FE10FF11D108260E070E0CE0102962C
:101120000E947E11BC016F5F7F4FCE0102960E942C
:1011300073110E947E04CE0102960E944804612F22
:1011400081E00E945C041D2D07C08D3429F432C259
:1011500000E010E001C001E089818D3309F0DCCEB0
:10116000DE011296FD0101900020E9F73197EA1B9C
:10117000FB0B6F01DD24AC0DBD1D1C92EE2309F4A9
:101180001BC2DE011296FD0101900020E9F73197A4
:101190007F01EA1AFB0AB1E0EB16F10409F025C160
:1011A0008A818A3249F08F3239F08E3529F08D32BA
:1011B00019F08B3209F01BC10E947E0461E081E0CE
:1011C0000E945C048EE890E00E94480461E082E0A6
:1011D0000E945C048BE990E00E944804CE010196D5
:1011E0000E94700389818F3FC9F38032B9F70E9452
:1011F0007E0480E0E2C10A2D10E0E2E0F0E0EC0FB6
:10120000FD1FE00FF11F80818A3221F08F3211F033
:101210008E3571F5F801319622E030E02C0F3D1F3C
:10122000E20FF31F90819A3221F09F3211F09E3528
:10123000F9F40E947E0461E081E00E945C048EE883
:1012400090E00E94480461E082E00E945C048BE927
:1012500090E00E944804CE0101960E9470038981AB
:101260008F3FC9F38032B9F70E947E0480E0A5C1A8
:101270008E3209F05AC06EE270E0C4010196A2E01D
:10128000B0E0AC0FBD1F8A0F9B1F0E947E1100971C
:1012900009F4A9C022E030E02C0F3D1F820E931EFE
:1012A00088199909BB24BA94B80E812C18C0F8018A
:1012B000EB0DF11D82E090E08C0F9D1FE80FF91FF0
:1012C0009080892D0E94A805892B31F4892D0E94D8
:1012D000B005892B19F006C088248394BA94B11004
:1012E000E6CF01C0812C91E089127DC00E947E046E
:1012F00061E081E00E945C048EE890E00E94480476
:1013000061E082E00E945C048BE990E00E94480466
:10131000CE0101960E94700389818F3FC9F380320C
:10132000B9F70E947E0480E048C1F6013197A2E03F
:10133000B0E0AC0FBD1FEA0FFB1F90819A3241F065
:101340009F3231F09E3521F09D3211F09B32F9F43D
:101350000E947E0461E081E00E945C048EE890E0DF
:101360000E94480461E082E00E945C048BE990E006
:101370000E944804CE0101960E94700389818F3F2C
:10138000C9F38032B9F70E947E0480E016C18F3223
:1013900051F50F5F1F4FE2E0F0E0EC0FFD1FE00F93
:1013A000F11F80818033F9F40E947E0461E081E0C6
:1013B0000E945C0484EA90E00E94480461E082E0BC
:1013C0000E945C048BE990E00E944804CE010196E3
:1013D0000E94700389818F3FC9F38032B9F70E9460
:1013E0007E0480E0EAC0A39403C0A12C01C0A12C1C
:1013F0008A2C912CC70101978816990608F4FBCE18
:10140000F12C65C0E2E0F0E0EC0FFD1FE00FF11FF2
:10141000E0808E2D0E94A805892B09F457C0F801A1
:10142000319622E030E02C0F3D1FE20FF31F808148
:101430000E94A805892B09F449C0F801329682E080
:1014400090E08C0F9D1FE80FF91F80810E94A80576
:10145000892BE1F1F8013396A2E0B0E0AC0FBD1F9B
:10146000EA0FFB1F80810E94A805892B79F1F80102
:10147000349622E030E02C0F3D1FE20FF31F8081F5
:101480000E94A805892B11F135E33E15F8F40E945E
:101490007E0461E081E00E945C048FEA90E00E949B
:1014A000480461E082E00E945C048BE990E00E94C5
:1014B0004804CE0101960E94700389818F3FC9F3D1
:1014C0008032B9F70E947E0480E077C0F3940F2D3C
:1014D0000F2C000C110BC6010597801791070CF01B
:1014E00091CFBE01665D7F4FCE0102960E94ED0551
:1014F000CE018A960E940D0C6B017C0114C0BE01C6
:10150000665D7F4FCE0186960E94A70B4EA15FA11C
:1015100068A579A5CE01C0960E94770B81E0C81A14
:10152000D108E108F108C114D104E104F10439F74C
:101530006DED74E0CE01C0960E94F40BCE01C09612
:101540000E94F6066B017C0120E030E0A9010E94B8
:101550009E0C882364F48DE28A8B24E030E0AE0197
:101560004D5E5F4FC701B6010E94340509C024E0FB
:1015700030E0AE014E5E5F4FC701B6010E943405F8
:1015800061E082E00E945C048CEB90E00E944804E1
:1015900069E082E00E945C04CE0142960E94480409
:1015A000CE018A960E94130CCE01C0960E94130CA5
:1015B00081E003C081E001C080E0E5960FB6F894B9
:1015C000DEBF0FBECDBFDF91CF911F910F91FF9076
:1015D000EF90DF90CF90BF90AF909F908F90089545
:1015E0000E947E0408950E947E04089546E650E01D
:1015F00061E083E00E94990180916600811111C031
:101600009091F0008BEA989F812D11248695282FC8
:10161000220F820F981B9F5F9093F00081E08093D0
:1016200066000895CF93DF931F92CDB7DEB70E9477
:10163000A8000E9489040E940A03F89462E080E0F6
:101640000E942F0280E00E941D02789466EF7AE0EB
:1016500080E00E94080261E081E00E945C0485EC69
:1016600090E00E94480461E082E00E945C0487ED03
:1016700090E00E944804CE0101960E947003898187
:101680008F3FC9F38D34B9F781E08093F0000E9459
:101690007E048091F000823039F0833041F0813057
:1016A000C1F70E946007F5CF0E94F00AF2CF0E94B6
:1016B000F30AEFCFFC011282138214821582118289
:1016C0001082089580E00895FC0142815381648175
:1016D0007581452B462B472B31F080819181892BD9
:1016E00021F481E0089581E0089580E00895CF928B
:1016F000DF92EF92FF92CF93DF93EC016A017B01BF
:101700000E94620B81111BC086E090E00E944E1087
:10171000FC01C082D182E282F38228813981358343
:101720002483998388838A819B81AC81BD810196C2
:10173000A11DB11D8A839B83AC83BD8301C080E062
:10174000DF91CF91FF90EF90DF90CF9008950F93AE
:101750001F93CF93DF938C01EB01CB010E94640BAD
:10176000811120C0E881F98180819181A281B381BA
:10177000F80180839183A283B3838A819B81AC81AA
:10178000BD810197A109B1098A839B83AC83BD8385
:1017900088819981FC0124813581398328830E94C5
:1017A000E61001C080E0DF91CF911F910F91089565
:1017B0000F931F93CF93DF93EC018B010E94640B77
:1017C00081110CC0E881F98180819181A281B3816E
:1017D000F80180839183A283B38301C080E0DF910D
:1017E000CF911F910F9108950F931F93CF93DF9384
:1017F0008B01FC01C081D18109C0688179818A8116
:101800009B81F80109950C80DD81C02D2097A9F7F7
:10181000DF91CF911F910F910895FC016281738137
:10182000848195810895CF93DF93EC0113C0FC016F
:1018300024813581398328834A815B816C817D8154
:1018400041505109610971094A835B836C837D832F
:101850000E94E61088819981009749F7DF91CF9126
:1018600008955058BB27AA270E94490C0C94C30D19
:101870000E94B50D38F00E94BC0D20F039F49F3F56
:1018800019F426F40C94B20D0EF4E095E7FB0C94D9
:10189000AC0DE92F0E94D40D58F3BA1762077307F5
:1018A0008407950720F079F4A6F50C94F60D0EF454
:1018B000E0950B2EBA2FA02D0B01B90190010C0160
:1018C000CA01A0011124FF27591B99F0593F50F478
:1018D000503E68F11A16F040A22F232F342F4427D0
:1018E000585FF3CF469537952795A795F0405395C8
:1018F000C9F77EF41F16BA0B620B730B840BBAF098
:101900009150A1F0FF0FBB1F661F771F881FC2F702
:101910000EC0BA0F621F731F841F48F48795779516
:101920006795B795F7959E3F08F0B0CF9395880FD0
:1019300008F09927EE0F9795879508950E94880DD6
:1019400008F481E008950E94B70C0C94C30D0E9426
:10195000BC0D58F00E94B50D40F029F45F3F29F00E
:101960000C94AC0D51110C94F70D0C94B20D0E9417
:10197000D40D68F39923B1F3552391F3951B550BBF
:10198000BB27AA2762177307840738F09F5F5F4F52
:10199000220F331F441FAA1FA9F335D00E2E3AF091
:1019A000E0E832D091505040E695001CCAF72BD0A9
:1019B000FE2F29D0660F771F881FBB1F26173707FA
:1019C0004807AB07B0E809F0BB0B802DBF01FF272C
:1019D00093585F4F3AF09E3F510578F00C94AC0D50
:1019E0000C94F70D5F3FE4F3983ED4F3869577951A
:1019F0006795B795F7959F5FC9F7880F911D9695E5
:101A0000879597F90895E1E0660F771F881FBB1F40
:101A1000621773078407BA0720F0621B730B840BED
:101A2000BA0BEE1F88F7E09508950E941C0D68948C
:101A3000B1110C94F70D08950E94DC0D88F09F57AA
:101A400098F0B92F9927B751B0F0E1F0660F771FE2
:101A5000881F991F1AF0BA95C9F714C0B13091F0D8
:101A60000E94F60DB1E008950C94F60D672F782FC3
:101A70008827B85F39F0B93FCCF38695779567959D
:101A8000B395D9F73EF490958095709561957F4F09
:101A90008F4F9F4F0895E89409C097FB3EF49095AF
:101AA0008095709561957F4F8F4F9F4F9923A9F037
:101AB000F92F96E9BB279395F695879577956795C6
:101AC000B795F111F8CFFAF4BB0F11F460FF1BC00A
:101AD0006F5F7F4F8F4F9F4F16C0882311F096E99D
:101AE00011C0772321F09EE8872F762F05C066234B
:101AF00071F096E8862F70E060E02AF09A95660F04
:101B0000771F881FDAF7880F9695879597F90895BC
:101B1000990F0008550FAA0BE0E8FEEF16161706FE
:101B2000E807F907C0F012161306E407F50798F066
:101B3000621B730B840B950B39F40A2661F0232B7F
:101B4000242B252B21F408950A2609F4A140A695FB
:101B50008FEF811D811D089597F99F6780E870E0E0
:101B600060E008959FEF80EC089500240A94161613
:101B7000170618060906089500240A94121613067B
:101B8000140605060895092E0394000C11F4882309
:101B900052F0BB0F40F4BF2B11F460FF04C06F5F25
:101BA0007F4F8F4F9F4F089557FD9058440F551FFB
:101BB00059F05F3F71F04795880F97FB991F61F0CF
:101BC0009F3F79F087950895121613061406551F46
:101BD000F2CF4695F1DF08C0161617061806991FB2
:101BE000F1CF86957105610508940895E894BB27A7
:101BF00066277727CB0197F908950E94100E0C9461
:101C0000C30D0E94B50D38F00E94BC0D20F0952345
:101C100011F00C94AC0D0C94B20D11240C94F70D32
:101C20000E94D40D70F3959FC1F3950F50E0551F9E
:101C3000629FF001729FBB27F00DB11D639FAA2721
:101C4000F00DB11DAA1F649F6627B00DA11D661F70
:101C5000829F2227B00DA11D621F739FB00DA11D91
:101C6000621F839FA00D611D221F749F3327A00D4B
:101C7000611D231F849F600D211D822F762F6A2FE7
:101C800011249F5750409AF0F1F088234AF0EE0F4C
:101C9000FF1FBB1F661F771F881F91505040A9F779
:101CA0009E3F510580F00C94AC0D0C94F70D5F3FF6
:101CB000E4F3983ED4F3869577956795B795F795B5
:101CC000E7959F5FC1F7FE2B880F911D969587952D
:101CD00097F90895FA01EE0FFF1F3096210531059F
:101CE000A1F16115710561F48038BFE39B0749F1EB
:101CF00068949038810561F08038BFEF9B0741F010
:101D000099234AF5FF3FE1053105210519F1E894D2
:101D10000894E795D901AA2329F4AB2FBE2FF85FC9
:101D2000D0F310C0FF5F70F4A695E0F7F73950F0DC
:101D300019F0FF3A38F49F779F930DD00F9007FC6E
:101D40009058089546F00C94B20D60E070E080E881
:101D50009FE308954FE79F775F934F933F932F93B0
:101D60000E94650F2F913F914F915F910E94FD0D51
:101D70000C94C20E29F416F00C94AC0D0C94F60DD4
:101D80000C94B20D0E94DC0DA8F39638A0F707F86A
:101D90000F92E8942BE33AEA48EB5FE70E94130EB8
:101DA0000F920F920F924DB75EB70F920E94AD0F38
:101DB000E4E5F0E00E94F40E4F915F91EF91FF9106
:101DC000E595EE1FFF1F49F0FE57E0684427EE0F30
:101DD000441FFA95E1F74195550B0E94270F0F908C
:101DE00007FE0C941B0F0895DF93CF931F930F935F
:101DF000FF92EF92DF927B018C01689406C0DA2E8D
:101E0000EF010E94100EFE01E894A59125913591F5
:101E100045915591A6F3EF010E94490CFE019701EF
:101E2000A801DA9469F7DF90EF90FF900F911F916E
:101E3000CF91DF9108959B01AC0160E070E080E8F4
:101E40009FE30C94A30C0C94AC0D0C94E10F0E9436
:101E5000DC0DD8F39923C9F3940F511DA3F39150CE
:101E6000504094F059F0882332F0660F771F881F96
:101E700091505040C1F79E3F51052CF7880F911D9E
:101E80009695879597F908955F3FACF0983E9CF042
:101E9000BB27869577956795B79508F4B1609395BC
:101EA000C1F7BB0F58F711F460FFE8CF6F5F7F4FAA
:101EB0008F4F9F4FE3CF0C94F70D16F00C94E10F6A
:101EC0000C94B20D68940C94AC0D0E94DC0DA8F338
:101ED0009923C1F3AEF3DF93CF931F930F93FF9238
:101EE000C92FDD2788232AF02197660F771F881FC7
:101EF000DAF720E030E040E85FEB9FE3883920F03C
:101F0000803E38F021968F770E94320CECE7F0E0AB
:101F100004C00E94320CE9EAF0E00E94F40E8B014A
:101F2000BE01EC01FB2E6F5771097595771F880B69
:101F3000990B0E944D0D28E132E741E35FE30E94D7
:101F4000100EAF2D9801AE01FF900F911F91CF9110
:101F5000DF910E94490C0C94C30DFA01DC01AA0F19
:101F6000BB1F9B01AC01BF5728F42227332744270E
:101F7000507820C0B75190F4AB2F00244695379588
:101F80002795011CA395D2F3002071F0220F331F77
:101F9000441FB395DAF30ED00C94310C6130710507
:101FA000A0E88A07B94630F49B01AC016627772781
:101FB00088279078309621F02083318342835383A1
:101FC00008959F3F31F0915020F48795779567955C
:101FD000B795880F911D9695879597F9089597FB6A
:101FE000072E16F4009407D077FD09D00E943A100E
:101FF00007FC05D03EF4909581959F4F089570950C
:1020000061957F4F08952F923F924F925F926F920A
:102010007F928F929F92AF92BF92CF92DF92EF9278
:10202000FF920F931F93CF93DF93CDB7DEB7CA1BF9
:10203000DB0B0FB6F894DEBF0FBECDBF09942A8824
:10204000398848885F846E847D848C849B84AA84CC
:10205000B984C884DF80EE80FD800C811B81AA8159
:10206000B981CE0FD11D0FB6F894DEBF0FBECDBF24
:10207000ED010895AA1BBB1B51E107C0AA1FBB1F9E
:10208000A617B70710F0A61BB70B881F991F5A9504
:10209000A9F780959095BC01CD0108950F931F93EA
:1020A000CF93DF938230910510F482E090E0E091CD
:1020B000F300F091F40020E030E0A0E0B0E03097D1
:1020C00019F1408151810281138148175907C8F0E5
:1020D0008417950769F4109731F012960C931297B4
:1020E00013961C9327C00093F3001093F40022C0B2
:1020F0002115310519F04217530718F49A01BD0153
:10210000EF01DF01F801DBCF21153105F9F0281BC4
:10211000390B2430310580F48A819B81611571056A
:1021200021F0FB019383828304C09093F400809399
:10213000F300FE01329644C0FE01E20FF31F8193CB
:10214000919322503109398328833AC02091F100BC
:102150003091F200232B41F4209162003091630012
:102160003093F2002093F1002091600030916100E3
:102170002115310541F42DB73EB7409164005091CF
:102180006500241B350BE091F100F091F200E2179D
:10219000F307A0F42E1B3F0B2817390778F0AC018A
:1021A0004E5F5F4F2417350748F04E0F5F1F509367
:1021B000F2004093F1008193919302C0E0E0F0E0DF
:1021C000CF01DF91CF911F910F910895CF93DF93AE
:1021D000009709F481C0FC01329713821282A0910A
:1021E000F300B091F400109781F420813181820FC7
:1021F000931F2091F1003091F2002817390751F513
:10220000F093F200E093F10067C0ED0120E030E0D0
:10221000CE17DF0740F44A815B819E0141155105CD
:10222000F1F0EA01F5CFD383C28340815181840F5D
:10223000951FC817D90759F488819981840F951F74
:102240000296918380838A819B8193838283211567
:10225000310529F4F093F400E093F3003DC0E90167
:10226000FB83EA8349915991C40FD51FEC17FD07F1
:1022700061F480819181840F951F0296E901998311
:102280008883828193819B838A83E0E0F0E01296C9
:102290008D919C911397009719F0FD01DC01F7CF08
:1022A0008D919C9111979D012E5F3F4F820F931F3F
:1022B0002091F1003091F2002817390769F4309726
:1022C00029F41092F4001092F30002C013821282DB
:1022D000B093F200A093F100DF91CF9108956627AB
:1022E00077270C948013FB01DC010D900020E9F7A7
:1022F000119701900D920020E1F70895FC01819162
:10230000861721F08823D9F7992708953197CF01AF
:102310000895A0E0B0E0EFE8F1E10C941310AE01F5
:102320004B5F5F4FFA0161917191AF018091F700AE
:102330009091F8000E949F11E2E00C942F10ABE006
:10234000B0E0E5EAF1E10C9403106C017B018A0135
:10235000FC0117821682838181FFCCC1CE010196D8
:102360003C01F6019381F70193FD859193FF8191E3
:102370007F01882309F4BAC1853239F493FD859130
:1023800093FF81917F01853229F4B60190E00E948C
:102390000515E7CF912C212C312CFFE1F315D8F056
:1023A0008B3279F038F4803279F08332A1F4232D26
:1023B00020611DC08D3261F0803369F4232D2160CE
:1023C00016C0832D8260382EE32DE4603E2E2AC095
:1023D000F32DF8601DC037FC2DC020ED280F2A30EA
:1023E00040F08E32B9F436FC81C1232D2064322EA8
:1023F00019C036FE06C08AE0989E200D1124922E48
:1024000011C0EAE02E9E200D1124222EF32DF06241
:102410003F2E08C08C3621F4832D8068382E02C0F0
:10242000883641F4F70193FD859193FF81917F01F7
:102430008111B3CF982F9F7D9554933028F40C5F72
:102440001F4F9FE399830DC0833631F0833771F0BE
:10245000833509F059C021C0F801808189830E5F5E
:102460001F4F88248394912C530113C02801F2E05C
:102470004F0E511CF801A080B18036FE03C0692DBB
:1024800070E002C06FEF7FEFC5010E94FA144C01AB
:102490008201F32DFF773F2E16C0280122E0420E65
:1024A000511CF801A080B18036FE03C0692D70E098
:1024B00002C06FEF7FEFC5010E94EF144C01F32DB6
:1024C000F0683F2E820133FC1BC0822D90E08816FD
:1024D0009906B0F4B60180E290E00E9405152A94B6
:1024E000F4CFF50137FC859137FE81915F01B6018C
:1024F00090E00E94051521102A9421E0821A91088B
:102500008114910471F7E8C0843611F0893641F5E1
:10251000F80137FE07C060817181828193810C5F71
:102520001F4F08C060817181072E000C880B990B2A
:102530000E5F1F4FF32DFF763F2E97FF09C090953A
:102540008095709561957F4F8F4F9F4FF0683F2E1C
:102550002AE030E0A3010E944115882E861845C06C
:10256000853731F4232D2F7EB22E2AE030E025C0AE
:10257000932D997FB92E8F36C1F018F4883579F0F4
:10258000B5C0803719F0883721F0B0C0E92FE0617D
:10259000BE2EB4FE0DC0FB2DF460BF2E09C034FE6C
:1025A0000AC0292F2660B22E06C028E030E005C000
:1025B00020E130E002C020E132E0F801B7FE07C0C0
:1025C00060817181828193810C5F1F4F06C06081A1
:1025D000718180E090E00E5F1F4FA3010E944115C2
:1025E000882E8618FB2DFF773F2E36FE0DC0232D3B
:1025F0002E7FA22E891458F434FE0BC032FC09C081
:10260000832D8E7EA82E05C0B82CA32C03C0B82C19
:1026100001C0B92CA4FE0FC0FE01E80DF11D8081A0
:10262000803321F49A2D997EA92E09C0A2FE06C0FE
:10263000B394B39404C08A2D867809F0B394A3FCB4
:1026400011C0A0FE06C0B21488F4280C922C9B186E
:102650000EC0B21460F4B60180E290E00E9405154D
:10266000B394F7CFB21418F42B1802C0982C212C75
:10267000A4FE10C0B60180E390E00E940515A2FE02
:1026800017C0A1FC03C088E790E002C088E590E095
:10269000B6010CC08A2D867859F0A1FE02C08BE2EB
:1026A00001C080E2A7FC8DE2B60190E00E94051512
:1026B000891438F4B60180E390E00E9405159A94DD
:1026C000F7CF8A94F301E80DF11D8081B60190E007
:1026D0000E9405158110F5CF222009F442CEB601E3
:1026E00080E290E00E9405152A94F6CFF6018681DB
:1026F000978102C08FEF9FEF2B96E2E10C941F10A1
:10270000A0E0B0E0E6E8F3E10C940910EC016B0105
:102710006115710519F0FB01918380837E01FFEF44
:10272000EF1AFF0A0881802F90E00E94CE14892BB7
:1027300011F0E701F3CF0D3239F47E0182E0E80EAB
:10274000F11C098111E008C00B3229F47E0192E0EE
:10275000E90EF11C098110E0E701219743E050E008
:102760006EED70E0CE010E94D714892BC1F4239640
:1027700045E050E069ED70E0CE010E94D714892B4E
:1027800009F42596C114D10419F0F601D183C08350
:102790001111F6C060E070E080E89FE7FAC043E006
:1027A00050E066ED70E0CE010E94D714892B59F4F9
:1027B000C114D10409F4E9C0F2E0EF0EF11CF601F6
:1027C000F182E082E2C020E030E0A901C0E0D0E088
:1027D000F70180EDA82EA00E89E08A1530F1912F27
:1027E0009260B92E812F887012FF04C0811124C01D
:1027F000219622C081112197A5E0B0E00E94A21588
:10280000DC01CB01880F991FAA1FBB1F9C01AD01E2
:102810002A0D311D411D511D283989E93807480706
:1028200089E1580748F0166006C09EEFA9120AC059
:1028300013FD40C01860B12E8FEFE81AF80A00812E
:102840001B2DC6CF802F8F7D8534A1F580818D32E1
:1028500011F4106106C08B3221F0319661E070E016
:1028600004C08181329662E070E080538A3018F0B3
:10287000E61BF70B1FC060E070E060389CE0790752
:102880005CF4DB01AA0FBB1FAA0FBB1F6A0F7B1FE3
:10289000660F771F680F711D3196DF0111978C91BC
:1028A00080538A3050F314FF03C07195619571090C
:1028B000C60FD71F11FF08C0C114D10429F0CF01E2
:1028C0000197F60191838083CA01B9010E944B0DE3
:1028D000212F2370233019F04B015C0106C04B01FE
:1028E0005C01B7FAB094B7F8B09420E030E0A901E9
:1028F000C501B4010E949E0C882309F43EC0D7FF95
:1029000006C0D195C195D10905EF10E002C00DE0D8
:1029100011E06801F8E1CF1AD10890E2E92EF12C1C
:10292000CE15DF0574F0F80125913591459154914C
:10293000C501B4010E94FD0D4B015C01CE19DF09F8
:10294000EFCF04501109F594E7940C151D0541F7DC
:102950008A2D880F8B2D881F8F3F49F020E030E0B3
:10296000A901C501B4010E949E0C811106C082E23A
:1029700090E09093FC008093FB00C501B40109C076
:1029800060E070E080E89FEF04C060E070E080EC01
:102990009FE7CDB7DEB7ECE00C94251091110C94B5
:1029A0009F15803219F089508550C8F70895FB01B2
:1029B000DC014150504088F08D9181341CF08B3502
:1029C0000CF4805E659161341CF06B350CF4605E34
:1029D000861B611171F3990B0895881BFCCFFC01D4
:1029E0000590615070400110D8F7809590958E0F3A
:1029F0009F1F0895FC016150704001900110D8F7AD
:102A0000809590958E0F9F1F08950F931F93CF93DE
:102A1000DF93FB01238121FD03C08FEF9FEF2CC0CB
:102A200022FF16C046815781248135814217530702
:102A300044F4A081B1819D012F5F3F4F31832083FA
:102A40008C93268137812F5F3F4F3783268314C0B5
:102A50008B01EC01FB010084F185E02D0995892BA8
:102A6000E1F6D80116968D919C91179701961796CD
:102A70009C938E931697CE01DF91CF911F910F916A
:102A80000895FA01AA27283051F1203181F1E89404
:102A90006F936E7F6E5F7F4F8F4F9F4FAF4FB1E051
:102AA0003ED0B4E03CD0670F781F891F9A1FA11D4C
:102AB000680F791F8A1F911DA11D6A0F711D811D4D
:102AC000911DA11D20D009F468943F912AE0269F12
:102AD00011243019305D3193DEF6CF010895462F71
:102AE0004770405D4193B3E00FD0C9F7F6CF462F52
:102AF0004F70405D4A3318F0495D31FD40524193BB
:102B000002D0A9F7EACFB4E0A69597958795779577
:102B10006795BA95C9F700976105710508959B01FE
:102B2000AC010A2E06945795479537952795BA9587
:102B3000C9F7620F731F841F951FA01D0895992761
:102B4000882708950E94AD15A59F900DB49F900D04
:102B5000A49F800D911D11240895A29FB001B39FE1
:102B6000C001A39F700D811D1124911DB29F700D96
:0C2B7000811D1124911D0895F894FFCFE1
:102B7C000000FD002000010001020304050607000F
:102B8C0001203738392A2F433435362D5E3E313209
:102B9C00332B473C302E3D2B4D25662020005359BE
:102BAC004E544158204552524F52005052455353A7
:102BBC00204143004D415448204552524F52002071
:102BCC002020204F564552464C4F57007265737566
:102BDC006C743D200057656C636F6D652070726579
:102BEC007373284D292000312D43414C20322D4E3A
:0A2BFC00554D20332D474D200000F9
:00000001FF
