:100000000C942A000C9416010C943F010C94680186
:100010000C943C000C943C000C943C000C943C0070
:100020000C943C000C943C000C943C000C943C0060
:100030000C943C000C943C000C943C000C943C0050
:100040000C943C000C943C000C943C000C943C0040
:100050000C943C0011241FBECFE5D8E0DEBFCDBF1D
:1000600020E0A0E6B0E001C01D92A636B207E1F79D
:100070000E9496010C94BF010C9400008FEF8ABB84
:100080009BEF97BB84BB80EF81BB1BBA84E088BB2E
:1000900015BA8FE082BB81E008958430D0F56830D6
:1000A000D0F5813091F028F08230D9F0833029F1F9
:1000B00034C081E090E002C0880F991F6A95E2F792
:1000C0009BB389278BBB81E0089581E090E002C05B
:1000D000880F991F6A95E2F798B3892788BB81E05A
:1000E000089581E090E002C0880F991F6A95E2F7B9
:1000F00095B3892785BB81E0089581E090E002C037
:10010000880F991F6A95E2F792B3892782BB81E035
:10011000089583E0089583E0089581E00895813093
:1001200049F018F0823059F008957093650060939B
:100130006400089570936300609362000895709363
:100140006100609360000895813041F018F08230C2
:1001500049F008958BB780648BBF08958BB7806892
:100160008BBF08958BB780628BBF0895813049F1B2
:1001700020F0823009F449C00895613069F028F018
:10018000623089F06330B1F0089585B78E7F85BF06
:1001900085B78D7F85BF089585B7816085BF85B799
:1001A0008D7F85BF089585B78E7F85BF85B78260B7
:1001B00085BF089585B7816085BF85B7826085BF9B
:1001C0000895613069F028F0623089F06330B1F051
:1001D000089585B78B7F85BF85B7877F85BF0895D5
:1001E00085B7846085BF85B7877F85BF089585B74C
:1001F0008B7F85BF85B7886085BF089585B784608C
:1002000085BF85B7886085BF0895623019F0633077
:1002100029F008C084B78F7B84BF089584B78064B9
:1002200084BF089584B78F7B84BF08951F920F9277
:100230000FB60F9211242F933F934F935F936F93B9
:100240007F938F939F93AF93BF93EF93FF93E0912F
:100250006400F0916500309709F00995FF91EF91E6
:10026000BF91AF919F918F917F916F915F914F91CE
:100270003F912F910F900FBE0F901F9018951F92D6
:100280000F920FB60F9211242F933F934F935F93CA
:100290006F937F938F939F93AF93BF93EF93FF934E
:1002A000E0916200F0916300309709F00995FF91A9
:1002B000EF91BF91AF919F918F917F916F915F91DE
:1002C0004F913F912F910F900FBE0F901F90189557
:1002D0001F920F920FB60F9211242F933F934F93BB
:1002E0005F936F937F938F939F93AF93BF93EF939E
:1002F000FF93E0916000F0916100309709F009955B
:10030000FF91EF91BF91AF919F918F917F916F91ED
:100310005F914F913F912F910F900FBE0F901F90C3
:10032000189567E083E00E944D000895F8940E94BC
:100330003E0063E080E00E94B60061E081E00E9440
:10034000B60062E082E00E94B60080E00E94A40055
:1003500081E00E94A40082E00E94A400789461E9F8
:1003600071E080E00E948F0061E971E081E00E940D
:100370008F0061E971E082E00E948F00FFCFF89466
:02038000FFCFAD
:00000001FF
