S01700004763634170706C69636174696F6E312E737265635B
S11300000C942A000C943F000C943F000C943F0085
S11300100C943F000C943F000C943F000C943F0060
S11300200C943F000C943F000C943F000C943F0050
S11300300C943F000C943F000C943F000C943F0040
S11300400C943F000C943F000C943F000C943F0030
S11300500C943F0011241FBECFE5D8E0DEBFCDBF16
S113006010E0A0E6B0E0EEE7F8E002C005900D92E3
S1130070AC38B107D9F70E9474030C943D040C9476
S11300800000843008F067C0683008F066C0423071
S113009008F065C08130E9F030F0823081F18330BE
S11300A009F443C05EC081E090E0062E02C0880FD0
S11300B0991F0A94E2F780952AB32823842F90E0AD
S11300C002C0880F991F6A95E2F7822B8ABB81E0F0
S11300D0089521E030E0062E02C0220F331F0A9457
S11300E0E2F7209587B32823842F90E002C0880F7D
S11300F0991F6A95E2F7822B87BB81E0089521E07E
S113010030E0062E02C0220F331F0A94E2F7209536
S113011084B32823842F90E002C0880F991F6A9526
S1130120E2F7822B84BB81E0089521E030E0062EC3
S113013002C0220F331F0A94E2F7209581B32823CB
S1130140842F90E002C0880F991F6A95E2F7822BF2
S113015081BB81E0089583E0089583E0089583E0FE
S1130160089581E00895843008F067C0683008F08D
S113017066C0423008F065C08130E9F030F082306A
S113018081F1833009F443C05EC081E090E0062E23
S113019002C0880F991F0A94E2F780952BB3282395
S11301A0842F90E002C0880F991F6A95E2F7822B92
S11301B08BBB81E0089521E030E0062E02C0220FBF
S11301C0331F0A94E2F7209588B32823842F90E004
S11301D002C0880F991F6A95E2F7822B88BB81E0E1
S11301E0089521E030E0062E02C0220F331F0A9446
S11301F0E2F7209585B32823842F90E002C0880F6E
S1130200991F6A95E2F7822B85BB81E0089521E06E
S113021030E0062E02C0220F331F0A94E2F7209525
S113022082B32823842F90E002C0880F991F6A9517
S1130230E2F7822B82BB81E0089583E0089583E096
S1130240089583E0089581E00895843010F562955F
S1130250607F813061F028F0823079F0833099F04A
S11302601AC08BB38F70682B6BBB81E0089588B381
S11302708F70682B68BB81E0089585B38F70682BFD
S113028065BB81E0089582B38F70682B62BB81E007
S1130290089583E0089581E0089541E063E081E0FA
S11302A00E94B3008FEC97E00197F1F700C00000C3
S11302B040E063E081E00E94B3008FEC97E0019797
S11302C0F1F700C000000895CF93C82F40E061E02B
S11302D081E00E94B30040E062E081E00E94B3004C
S11302E06C2F62956F7080E00E9425010E944D0181
S11302F06C2F80E00E9425010E944D018FEC97E055
S11303000197F1F700C0000081E0CF910895CF93E9
S1130310C82F41E061E081E00E94B30040E062E068
S113032081E00E94B3006C2F62956F7080E00E94A0
S113033025010E944D016C2F80E00E9425010E943E
S11303404D018FEC97E00197F1F700C0000081E0C8
S1130350CF9108950F931F93CF938C01C0E003C0F6
S11303600E948701CF5FF801EC0FF11D808181119C
S1130370F7CF81E0CF911F910F9108952F923F9273
S11303804F925F926F927F928F929F92AF92BF92A1
S1130390CF92DF92EF92FF920F931F93CF93DF934D
S11303A0CDB7DEB728970FB6F894DEBF0FBECDBF2A
S11303B029833A834B835C836D837E83382E292E75
S11303C0A0E00E94310409F081C080E30E9487010B
S11303D0CBC02F813885492D582D672D762D852D3D
S11303E0942D01E00E940F04822E932E48875F8390
S11303F0B62FA72FF82FE92F02E00E940F04A22E98
S1130400B32EC42ED52EE62EF72E082F192F282D05
S1130410392D48855F816B2F7A2F8F2F9E2F0E9455
S1130420280428873F83942E852E762E672E582EF7
S1130430492E0F2EFAE0AF2EF02DB12CC12CD12C69
S1130440E12CF12C00E010E029813A814B815C81A0
S11304506D817E81832D922D0E94B003A22EB32E36
S1130460C42ED52EE62EF72E082F192F28853F816E
S1130470492D582D672D762D852D942D0E94280405
S11304802F833887942E852E762E672E582E492E4C
S11304900F2EFAE0AF2EF02DB12CC12CD12CE12C73
S11304A0F12C00E010E029813A814B815C816D815F
S11304B07E81832D922D0E94B20329833A834B833C
S11304C05C836D837E83382E292E09C081E01886D3
S11304D0912C812C712C612C512C412C8F832981DE
S11304E03A814B815C816D817E81832D922DA0E0C8
S11304F00E94310409F06DCF2BC00F2EFAE0AF2E0D
S1130500F02DB12CC12CD12CE12CF12C00E010E009
S11305102F813885492D582D672D762D852D942DC5
S11305200E94B00380E3820F0E9487012F813885E7
S1130530492D582D672D762D852D942D0E94B203BB
S11305402F833887942E852E762E672E582E492E8B
S11305502F813885492D582D672D762D852D942D85
S1130560A1E00E94310449F681E028960FB6F89480
S1130570DEBF0FBECDBFDF91CF911F910F91FF90D2
S1130580EF90DF90CF90BF90AF909F908F907F902F
S11305906F905F904F903F902F9008959FEF980F2A
S11305A0923070F4613170F4662371F0813019F483
S11305B02FE7260F0AC0823041F42FEB260F05C027
S11305C020E803C020E801C020E8822F0E946401D3
S11305D08FEC97E00197F1F700C0000081E00895E7
S11305E01F93CF93DF93D82F162F80E40E946401CA
S11305F0C0E008C0EC2FF0E0E05AFF4F80810E9479
S11306008701CF5FC032B0F3612F8D2F0E94CE02DD
S1130610C0E004C08C2F0E948701CF5FC830D0F3A4
S113062081E0DF91CF911F91089581E00E946401E0
S11306308FE19EE40197F1F700C0000081E0089586
S11306402FE788E391E0215080409040E1F700C01B
S1130650000041E064E080E00E94410041E065E088
S113066080E00E94410041E066E080E00E94410099
S113067041E067E080E00E94410041E061E081E008
S11306800E94410041E062E081E00E94410041E0BB
S113069063E081E00E94410082E00E9464018FE5F2
S11306A09AEE0197F1F700C0000088E20E9464010D
S11306B08FEC97E00197F1F700C000008CE00E94F6
S11306C064018FEC97E00197F1F700C000000E94ED
S11306D0150386E00E9464018FEC97E00197F1F71F
S11306E000C0000081E008950E94200368E081E0DA
S11306F00E94CE022DE230E040E050E060E070E085
S113070080E090E00E94BE012FE986E891E021504C
S113071080409040E1F700C0000063E082E00E9466
S1130720CE0280E890E00E94AA012FE986E891E0D9
S1130730215080409040E1F700C000000E94150362
S113074068E082E00E94F0022FE986E891E02150FF
S113075080409040E1F700C000000E941503C6CF1E
S1130760689401C0E8948F929F92CF93DF930E9484
S1130770BE03DF91CF919F908F9008958824992490
S1130780F401E401B0E49F93AA279A158B049C0416
S1130790ED05FE05CF05D007A10798F4AD2FDC2F9A
S11307A0CF2FFE2FE92D982C892E982F872F762F67
S11307B0652F542F432F322F2227B85031F7BF9182
S11307C027C01B2EBF91BB27220F331F441F551F69
S11307D0661F771F881F991F881C991CEE1FFF1F17
S11307E0CC1FDD1FAA1FBB1F8A149B04EC05FD054B
S11307F0CE05DF05A007B10748F08A189B08EC096D
S1130800FD09CE09DF09A00BB10B21601A94E1F6B2
S11308102EF49401AF01BE01CD01000C08950F9395
S1130820083090F0982F872F762F652F542F432F61
S1130830322F22270850F4CF220F331F441F551F95
S1130840661F771F881F991F0A95B2F70F910895A5
S11308502A0D3B1D4C1D5D1D6E1D7F1D801F911FAC
S113086008950024A7FD00942A173005400550057B
S111087060057005800590050895F894FFCF8B
S113087E00070412121E0C0000030303031F1F00C3
S113088E000F090F03060C0000030303031F1F00D0
S10F089E416264656C72686D616E00005C
S9030000FC
