S01700004763634170706C69636174696F6E312E737265635B
S11300000C942A000C943F000C943F000C943F0085
S11300100C943F000C943F000C943F000C943F0060
S11300200C943F000C943F000C943F000C943F0050
S11300300C943F000C943F000C943F000C943F0040
S11300400C943F000C943F000C943F000C943F0030
S11300500C943F0011241FBECFE5D8E0DEBFCDBF16
S113006010E0A0E6B0E0E8E5F6E002C005900D92ED
S1130070A837B107D9F70E9415030C942A030C94EE
S113008000008FEF8ABB87BB84BB80EF81BB1BBAA8
S113009018BA15BA8FE082BB81E00895843008F065
S11300A067C0683008F066C0423008F065C081302F
S11300B0E9F030F0823081F1833009F443C05EC04E
S11300C081E090E0062E02C0880F991F0A94E2F79F
S11300D080952AB32823842F90E002C0880F991FAB
S11300E06A95E2F7822B8ABB81E0089521E030E033
S11300F0062E02C0220F331F0A94E2F7209587B31D
S11301002823842F90E002C0880F991F6A95E2F794
S1130110822B87BB81E0089521E030E0062E02C0E7
S1130120220F331F0A94E2F7209584B32823842FE7
S113013090E002C0880F991F6A95E2F7822B84BB76
S113014081E0089521E030E0062E02C0220F331F23
S11301500A94E2F7209581B32823842F90E002C00B
S1130160880F991F6A95E2F7822B81BB81E008957D
S113017083E0089583E0089583E0089581E008957D
S1130180843008F067C0683008F066C0423008F078
S113019065C08130E9F030F0823081F1833009F4B8
S11301A043C05EC081E090E0062E02C0880F991F14
S11301B00A94E2F780952BB32823842F90E002C0A1
S11301C0880F991F6A95E2F7822B8BBB81E0089513
S11301D021E030E0062E02C0220F331F0A94E2F71A
S11301E0209588B32823842F90E002C0880F991F9C
S11301F06A95E2F7822B88BB81E0089521E030E024
S1130200062E02C0220F331F0A94E2F7209585B30D
S11302102823842F90E002C0880F991F6A95E2F783
S1130220822B85BB81E0089521E030E0062E02C0D8
S1130230220F331F0A94E2F7209582B32823842FD8
S113024090E002C0880F991F6A95E2F7822B82BB67
S113025081E0089583E0089583E0089583E008959C
S113026081E0089541155105E1F18430E0F56830ED
S1130270E0F5813091F028F08230D9F0833029F113
S113028036C089B390E002C0959587956A95E2F7E8
S11302908170FA01808381E0089586B390E002C002
S11302A0959587956A95E2F78170FA01808381E0DC
S11302B0089583B390E002C0959587956A95E2F717
S11302C08170FA01808381E0089580B390E002C0D8
S11302D0959587956A95E2F78170FA01808381E0AC
S11302E0089582E0089583E0089583E0089581E00D
S11302F00895843010F56295607F813061F028F0B4
S1130300823079F0833099F01AC08BB38F70682BE8
S11303106BBB81E0089588B38F70682B68BB81E064
S1130320089585B38F70682B65BB81E0089582B30F
S11303308F70682B62BB81E0089583E0089581E0AB
S1130340089540E060E083E00E944E0040E061E0F8
S113035083E00E944E0040E062E083E00E944E0091
S113036040E063E083E00E944E0041E060E083E00F
S11303700E94C00041E061E083E00E94C00041E0CF
S113038062E083E00E94C00041E063E083E00E94F9
S1130390C00041E064E083E00E944E0041E065E07B
S11303A083E00E944E0041E066E083E00E944E003C
S11303B041E067E083E00E944E0041E064E083E0B6
S11303C00E94C00041E065E083E00E94C00041E07B
S11303D066E083E00E94C00041E067E083E00E94A1
S11303E0C00081E00895AF92BF92CF92DF92EF9266
S11303F0FF920F931F93CF93DF931F92CDB7DEB776
S11304005C018FEFF501808300E043C0C02ED12C46
S1130410F601EC59FF4F40E0608183E00E94C00088
S113042010E02CC0E12EF12CF701E05AFF4FAE0191
S11304304F5F5F4F608183E00E94320189818111A7
S11304401CC0C701880F991F880F991F88599F4F97
S1130450FC01EC0DFD1D8081F50180830AC0AE0115
S11304604F5F5F4FF701E05AFF4F608183E00E94C6
S113047032018981882399F30FC01F5F143090F2F1
S1130480F601EC59FF4F41E0608183E00E94C00017
S11304900F5F043008F4BACF81E00F90DF91CF9161
S11304A01F910F91FF90EF90DF90CF90BF90AF908E
S11304B0089541E062E080E00E94C0008FEC97E084
S11304C00197F1F700C0000040E062E080E00E9484
S11304D0C0008FEC97E00197F1F700C00000089589
S11304E0CF93C82F40E060E080E00E94C00040E06D
S11304F061E080E00E94C0006C2F62956F7081E023
S11305000E9479010E9459026C2F81E00E947901B6
S11305100E9459028FEC97E00197F1F700C00000A8
S113052081E0CF910895CF93C82F41E060E080E04F
S11305300E94C00040E061E080E00E94C0006C2F97
S113054062956F7081E00E9479010E9459026C2FBC
S113055081E00E9479010E9459028FEC97E0019793
S1130560F1F700C0000081E0CF91089581E00E947E
S113057070028FE99FE00197F1F700C0000081E06D
S113058008952FE788E391E0215080409040E1F7FF
S113059000C0000041E064E081E00E944E0041E0C0
S11305A065E081E00E944E0041E066E081E00E9447
S11305B04E0041E067E081E00E944E0041E060E0CF
S11305C080E00E944E0041E061E080E00E944E0025
S11305D041E062E080E00E944E0082E00E947002EE
S11305E08FE59AEE0197F1F700C0000088E20E94BF
S11305F070028FEC97E00197F1F700C000008CE0E7
S11306000E9470028FEC97E00197F1F700C00000A0
S11306100E94B60286E00E9470028FEC97E0019778
S1130620F1F700C0000081E00895CF93DF931F929B
S1130630CDB7DEB70E9441000E94C1020E94A10111
S1130640CE0101960E94F30189818F3FC9F30E9474
S10B06509302F6CFF894FFCFEA
S113065800010203040506073738392F3435362AD2
S10B06683132332D3F303D2BEC
S9030000FC
