S01700004763634170706C69636174696F6E312E737265635B
S11300000C942A000C945F010C9488010C94B101A7
S11300100C9447000C9447000C9447000C94470040
S11300200C9447000C9447000C9447000C94470030
S11300300C9447000C9447000C9447000C94470020
S11300400C9447000C9447000C9447000C94470010
S11300500C94470011241FBECFE5D8E0DEBFCDBF0E
S113006010E0A0E6B0E0E2EFF3E002C005900D92EC
S1130070AA36B107D9F720E0AAE6B0E001C01D9284
S1130080A037B207E1F70E94DF010C94F7010C944A
S113009000008FEF8ABB9BEF97BB84BB80EF81BBD3
S11300A01BBA84E088BB15BA8FE082BB81E0089557
S11300B08430D0F56830D0F5813091F028F082306A
S11300C0D9F0833029F134C081E090E002C0880F78
S11300D0991F6A95E2F79BB389278BBB81E008954A
S11300E081E090E002C0880F991F6A95E2F798B307
S11300F0892788BB81E0089581E090E002C0880FE1
S1130100991F6A95E2F795B3892785BB81E0089525
S113011081E090E002C0880F991F6A95E2F792B3DC
S1130120892782BB81E0089583E0089583E00895E0
S113013081E00895AC01892B09F0A6C082E00895FE
S1130140292F30E0F901EE0FFF1F2E0F3F1FFA0198
S1130150E20FF31F2181213009F078C02081213082
S113016099F120F0223009F45DC08CC025B72E7FB0
S113017025BF25B72D7F25BF2BB720642BBF228138
S1130180213069F028F0223089F02330B1F073C0B7
S113019025B72E7F25BF25B72D7F25BF73C025B773
S11301A0216025BF25B72D7F25BF6CC025B72E7FC5
S11301B025BF25B7226025BF65C025B7216025BFAF
S11301C025B7226025BF5EC025B72B7F25BF25B785
S11301D0277F25BF2BB720682BBF2281213069F0F0
S11301E028F0223089F02330B1F047C025B72B7FA7
S11301F025BF25B7277F25BF45C025B7246025BF68
S113020025B7277F25BF3EC025B72B7F25BF25B740
S1130210286025BF37C025B7246025BF25B72860CF
S113022025BF30C025B72F7B25BF2BB720622BBF3E
S11302302281223019F0233029F021C024B72F7BEA
S113024024BF20C024B7206424BF1CC021111AC0BD
S11302502081213041F018F0223049F012C02BB730
S11302602F7B2BBF0FC02BB72F772BBF0BC02BB708
S11302702F7D2BBF07C083E005C083E003C083E06C
S113028001C083E09F5F02C090E080E0933008F4F7
S113029057CF0895813049F018F0823059F008950D
S11302A070936F0060936E00089570936D00609377
S11302B06C00089570936B0060936A0008951F9218
S11302C00F920FB60F9211242F933F934F935F9386
S11302D06F937F938F939F93AF93BF93EF93FF930A
S11302E0E0916E00F0916F00309709F00995FF914D
S11302F0EF91BF91AF919F918F917F916F915F919A
S11303004F913F912F910F900FBE0F901F90189512
S11303101F920F920FB60F9211242F933F934F9376
S11303205F936F937F938F939F93AF93BF93EF9359
S1130330FF93E0916C00F0916D00309709F00995FE
S1130340FF91EF91BF91AF919F918F917F916F91A9
S11303505F914F913F912F910F900FBE0F901F907F
S113036018951F920F920FB60F9211242F933F935B
S11303704F935F936F937F938F939F93AF93BF93A9
S1130380EF93FF93E0916A00F0916B00309709F0CE
S11303900995FF91EF91BF91AF919F918F917F91BB
S11303A06F915F914F913F912F910F900FBE0F90DE
S11303B01F90189567E083E00E9458000895F89410
S11303C00E94490080E690E00E949A0078946AEDC9
S11303D071E080E00E944A016AED71E081E00E94D0
S11303E04A016AED71E082E00E944A01FFCFF8946D
S10503F0FFCF39
S10D03F200010201010102010200F2
S9030000FC
