:100000000C942A000C946F020C9498020C94C10278
:100010000C940A080C94E1070C94B8070C948F0711
:100020000C9466070C943D070C9414070C94EB0693
:100030000C9447000C9447000C9447000C94470024
:100040000C949D000C9447000C9447000C944700BE
:100050000C94470011241FBECFE5D8E0DEBFCDBF12
:1000600010E0A0E6B0E0E8ECF2E102C005900D92ED
:10007000AA36B107D9F720E0AAE6B0E001C01D9288
:10008000A939B207E1F70E9432050C9462090C9479
:10009000000087B1806487B987B18F7787B987B14E
:1000A0008F7D87B986B1887F86B986B1876086B92A
:1000B00086B1806886B986B1886086B90895611571
:1000C0007105B9F1909160009530A9F596E0909393
:1000D000600097B1907E97B997B1892B87B986B1A7
:1000E000806486B980E090E0DC0103C00196A11D28
:1000F000B11D349906C0803523EC9207A105B105E6
:10010000A8F38035934CA105B10571F086B18061EB
:1001100086B924B185B190E0982F8827822BFB0106
:100120009183808381E001C087E095E09093600037
:10013000089582E0089586E008951F920F920FB609
:100140000F9211242F933F934F935F936F937F935D
:100150008F939F93AF93BF93EF93FF9380916E0024
:10016000811118C0E0917100F091720024B185B145
:1001700090E0982F8827822B9183808385E080935D
:100180006000E0916F00F0917000099586B1877F63
:1001900086B933C0E0917100F091720024B185B14D
:1001A00090E0982F8827822B9183808380916A002A
:1001B0008F5F80936A0090916B0089130CC085E07B
:1001C00080936000E0916F00F0917000099586B116
:1001D000877F86B912C087B1807E87B997B1809139
:1001E0006A00E0916C00F0916D00E80FF11D8081D4
:1001F000892B87B986B1806486B9FF91EF91BF9151
:10020000AF919F918F917F916F915F914F913F91AE
:100210002F910F900FBE0F901F9018958EEF8ABBF5
:100220008BEF87BB8CEF84BB83EF81BB1BBA18BA03
:1002300015BA12BA81E00895843008F067C06830BA
:1002400008F066C0423008F065C08130E9F030F057
:10025000823081F1833009F443C05EC081E090E0D8
:10026000062E02C0880F991F0A94E2F780952AB3E0
:100270002823842F90E002C0880F991F6A95E2F727
:10028000822B8ABB81E0089521E030E0062E02C077
:10029000220F331F0A94E2F7209587B32823842F77
:1002A00090E002C0880F991F6A95E2F7822B87BB06
:1002B00081E0089521E030E0062E02C0220F331FB6
:1002C0000A94E2F7209584B32823842F90E002C09B
:1002D000880F991F6A95E2F7822B84BB81E008950D
:1002E00021E030E0062E02C0220F331F0A94E2F70D
:1002F000209581B32823842F90E002C0880F991F96
:100300006A95E2F7822B81BB81E0089583E008952E
:1003100083E0089583E0089581E00895843008F033
:1003200067C0683008F066C0423008F065C08130B0
:10033000E9F030F0823081F1833009F443C05EC0CF
:1003400081E090E0062E02C0880F991F0A94E2F720
:1003500080952BB32823842F90E002C0880F991F2B
:100360006A95E2F7822B8BBB81E0089521E030E0B3
:10037000062E02C0220F331F0A94E2F7209588B39D
:100380002823842F90E002C0880F991F6A95E2F716
:10039000822B88BB81E0089521E030E0062E02C068
:1003A000220F331F0A94E2F7209585B32823842F68
:1003B00090E002C0880F991F6A95E2F7822B85BBF7
:1003C00081E0089521E030E0062E02C0220F331FA5
:1003D0000A94E2F7209582B32823842F90E002C08C
:1003E000880F991F6A95E2F7822B82BB81E00895FE
:1003F00083E0089583E0089583E0089581E00895FF
:1004000041155105E1F18430E0F56830E0F58130C7
:1004100091F028F08230D9F0833029F136C089B3C9
:1004200090E002C0959587956A95E2F78170FA0190
:10043000808381E0089586B390E002C0959587950A
:100440006A95E2F78170FA01808381E0089583B3B1
:1004500090E002C0959587956A95E2F78170FA0160
:10046000808381E0089580B390E002C095958795E0
:100470006A95E2F78170FA01808381E0089582E055
:10048000089583E0089583E0089581E0089584301D
:1004900010F56295607F813061F028F0823079F04C
:1004A000833099F01AC08BB38F70682B6BBB81E0DF
:1004B000089588B38F70682B68BB81E0089585B379
:1004C0008F70682B65BB81E0089582B38F70682BB5
:1004D00062BB81E0089583E0089581E008951F9252
:1004E0000F920FB60F9211242F933F934F935F9368
:1004F0006F937F938F939F93AF93BF93EF93FF93EC
:10050000E0917700F0917800309709F00995FF911C
:10051000EF91BF91AF919F918F917F916F915F917B
:100520004F913F912F910F900FBE0F901F901895F4
:100530001F920F920FB60F9211242F933F934F9358
:100540005F936F937F938F939F93AF93BF93EF933B
:10055000FF93E0917500F0917600309709F00995CE
:10056000FF91EF91BF91AF919F918F917F916F918B
:100570005F914F913F912F910F900FBE0F901F9061
:1005800018951F920F920FB60F9211242F933F933D
:100590004F935F936F937F938F939F93AF93BF938B
:1005A000EF93FF93E0917300F0917400309709F09E
:1005B0000995FF91EF91BF91AF919F918F917F919D
:1005C0006F915F914F913F912F910F900FBE0F90C0
:1005D0001F9018958FB780688FBF089541E063E042
:1005E00080E00E948E018FEC97E00197F1F700C048
:1005F000000040E063E080E00E948E018FEC97E015
:100600000197F1F700C000000895CF93C82F40E094
:1006100061E080E00E948E0140E062E080E00E94A4
:100620008E016C2F62956F7082E00E9447020E94DB
:10063000EE026C2F82E00E9447020E94EE028FECD5
:1006400097E00197F1F700C0000081E0CF91089595
:10065000CF93C82F41E061E080E00E948E0140E02E
:1006600062E080E00E948E016C2F62956F7082E0E4
:100670000E9447020E94EE026C2F82E00E94470215
:100680000E94EE028FEC97E00197F1F700C00000A6
:1006900081E0CF9108952F923F924F925F926F9297
:1006A0007F928F929F92AF92BF92CF92DF92EF9202
:1006B000FF920F931F93CF93DF9300D000D000D011
:1006C000CDB7DEB72C833D83942E852E762E672EF4
:1006D000382E292E19821A821B82A0E00E94470917
:1006E00049F412E080E30E942803112309F46CC04E
:1006F0001150F8CF2C813D81A0E00E9447096CF495
:100700000E9400092C833D83942E852E762E672E21
:10071000382E292E8DE20E9428031E8234C08E813D
:10072000482E512C0F2EFAE0AF2EF02DB12CC12CFB
:10073000D12CE12CF12C00E010E02C813D81492DE1
:10074000582D672D762D832D922D0E947008E1E0A3
:10075000F0E0EC0FFD1FE40DF51D20832C813D81A1
:10076000492D582D672D762D832D922D0E947208CC
:100770002C833D83942E852E762E672E382E292E9F
:100780008E818F5F8E832C813D81492D582D672D61
:10079000762D832D922DA0E00E94470931F08E81A5
:1007A000833008F4BCCF12E001C012E0E1E0F0E0D9
:1007B000EC0FFD1FE10FF11D8081805D0E94280379
:1007C000112311F01150F2CF26960FB6F894DEBF28
:1007D0000FBECDBFDF91CF911F910F91FF90EF9092
:1007E000DF90CF90BF90AF909F908F907F906F9051
:1007F0005F904F903F902F9008952F923F924F928D
:100800005F926F927F928F929F92AF92BF92CF92A0
:10081000DF92EF92FF920F931F93CF93DF93CDB7A9
:10082000DEB727970FB6F894DEBF0FBECDBF2D837E
:100830003E834F83852E762E672E382E292E1982E1
:100840001A821B821C82A0E00E94470949F413E02F
:1008500080E30E942803112309F46AC01150F8CFE5
:100860002D813E814F81A0E00E9447096CF40E94D7
:1008700000092D833E834F83852E762E672E382EDA
:10088000292E8DE20E942803912C31C0492C512C35
:100890000F2EFAE0AF2EF02DB12CC12CD12CE12C73
:1008A000F12C00E010E02D813E814F81582D672D05
:1008B000762D832D922D0E947008E1E0F0E0EC0F80
:1008C000FD1FE40DF51D20832D813E814F81582DA4
:1008D000672D762D832D922D0E9472082D833E83E5
:1008E0004F83852E762E672E382E292E93942D81B8
:1008F0003E814F81582D672D762D832D922DA0E0BE
:100900000E94470931F083E0891508F0BFCF13E05A
:1009100001C013E0E1E0F0E0EC0FFD1FE10FF11D7D
:100920008081805D0E942803112311F01150F2CFC5
:1009300027960FB6F894DEBF0FBECDBFDF91CF91E3
:100940001F910F91FF90EF90DF90CF90BF90AF90ED
:100950009F908F907F906F905F904F903F902F90DF
:1009600008959FEF980F923070F4613170F4662310
:1009700071F0813019F42FE7260F0AC0823041F45C
:100980002FEB260F05C020E803C020E801C020E8B7
:10099000822F0E9405038FEC97E00197F1F700C0CA
:1009A000000081E0089581E00E9405038FE19EE44C
:1009B0000197F1F700C0000081E008952FE788E378
:1009C00091E0215080409040E1F700C0000041E0FC
:1009D00064E082E00E941C0141E065E082E00E9448
:1009E0001C0141E066E082E00E941C0141E067E0FA
:1009F00082E00E941C0141E061E080E00E941C0155
:100A000041E062E080E00E941C0141E063E080E0A0
:100A10000E941C0182E00E9405038FE59AEE019777
:100A2000F1F700C0000088E20E9405038FEC97E018
:100A30000197F1F700C000008CE00E9405038FECE5
:100A400097E00197F1F700C000000E94D30486E010
:100A50000E9405038FEC97E00197F1F700C00000BA
:100A600081E00895CF93DF93CDB7DEB7AE970FB691
:100A7000F894DEBF0FBECDBF0E94EA020E940E01B5
:100A800081E690E00E9443060E947C060E94CC060C
:100A90000E9494060E9449000E94DE040E94D30432
:100AA00084E690E0A0E0B0E08B839C83AD83BE83BE
:100AB0001F82188619861A864FEF53E060E070E0B7
:100AC0004B875C876D877E871F86188A198A1A8AEA
:100AD000C12CD12C7601CA94CB8ADC8AED8AFE8A9D
:100AE0008F8B988FA98FBA8F1B8E1C8E1D8E1E8E9A
:100AF0004F8F58A369A37AA34FE95FE060E070E0ED
:100B00004BA35CA36DA37EA34FE35FE160E070E0C5
:100B10004FA358A769A77AA78BA79CA7ADA7BEA785
:100B200014E6BE016F5F7F4F81E690E00E946C0685
:100B3000898181110FC01C5E812F0E94E40607C0CD
:100B4000BE016F5F7F4F81E690E00E946C06898155
:100B50008823B1F3BE016E5F7F4F84E690E00E9470
:100B60006C068A8181110FC01451812F0E94E40606
:100B700007C0BE016E5F7F4F84E690E00E946C0666
:100B80008A818823B1F3BE016D5F7F4F80E00E94B0
:100B90005F00CE014B960E94FD058B819C810E94D7
:100BA000E60661E082E00E94B1048B809C80282DE3
:100BB000392D40E050E060E070E080E090E00E947D
:100BC000FD03BE016D5F7F4F80E00E945F00CE019C
:100BD00007960E94FD058B810E94E90661E081E095
:100BE0000E94B1042B8130E040E050E060E070E012
:100BF00080E090E00E944B0394CF8F929F92AF923F
:100C0000BF92CF92DF92EF92FF920F931F93FC015E
:100C100080899189A289B38980809180A280B380E4
:100C20009C01AD01281939094A095B09848595851C
:100C3000A685B785C084D184E284F384BC01CD014C
:100C40006C197D098E099F090E9433080481158162
:100C500026813781A9019801281939094A095B09B8
:100C60000E944308C701B601620F731F841F951FBE
:100C70001F910F91FF90EF90DF90CF90BF90AF90BA
:100C80009F908F900895EF92FF921F93CF93DF93E1
:100C90000097B9F482E01AC0C12FD0E0CE01880FCE
:100CA000991FC80FD91FCE0DDF1D698140E08881D3
:100CB0000E941C014A81698188810E948E011F5F08
:100CC00003C07C0110E080E0133030F3DF91CF915E
:100CD0001F91FF90EF900895009751F061157105F5
:100CE00049F0AB01FC01618180810E9400020895FE
:100CF00082E0089582E0089583B78F7B83BF83B736
:100D0000886083BF84E68CBF83B7806183BF83B76D
:100D10008F7D83BF89B78D7F89BF83B7887F83BF6E
:100D200083B7826083BF08958FB58E7F8FBD8FB5E7
:100D300082608FBD8EB588608EBD8EB580618EBDA0
:100D40008FE99FE09BBD8ABD19BC18BC8FE39FE172
:100D500097BD86BD8EB580648EBD8FB58F7B8FBDF0
:100D60008FB580688FBD8FB58F7E8FBD8FB58F7D1E
:100D70008FBD89B78B7F89BF89B78F7E89BF89B7C0
:100D8000877F89BF89B78F7D89BF8EB5887F8EBDEC
:100D90008EB581608EBD089585B58F7B85BD85B587
:100DA000886085BD86E983BD85B5806185BD85B5D3
:100DB0008F7D85BD89B78F7789BF85B5887F85BDD4
:100DC00085B5826085BD08958CBF08959BBD8ABDA1
:100DD000089583BD08951F920F920FB60F921124AC
:100DE0002F933F934F935F936F937F938F939F9333
:100DF000AF93BF93EF93FF93E0918F00F09190003A
:100E0000309709F00995FF91EF91BF91AF919F91B4
:100E10008F917F916F915F914F913F912F910F90A3
:100E20000FBE0F901F9018951F920F920FB60F9242
:100E300011242F933F934F935F936F937F938F93DF
:100E40009F93AF93BF93EF93FF93E0918D00F09149
:100E50008E00309709F00995FF91EF91BF91AF9106
:100E60009F918F917F916F915F914F913F912F91C2
:100E70000F900FBE0F901F9018951F920F920FB6F4
:100E80000F9211242F933F934F935F936F937F9310
:100E90008F939F93AF93BF93EF93FF93E0918B005A
:100EA000F0918C00309709F00995FF91EF91BF9177
:100EB000AF919F918F917F916F915F914F913F91F2
:100EC0002F910F900FBE0F901F9018951F920F92A9
:100ED0000FB60F9211242F933F934F935F936F930D
:100EE0007F938F939F93AF93BF93EF93FF93E09183
:100EF0008900F0918A00309709F00995FF91EF91F0
:100F0000BF91AF919F918F917F916F915F914F9121
:100F10003F912F910F900FBE0F901F9018951F9229
:100F20000F920FB60F9211242F933F934F935F931D
:100F30006F937F938F939F93AF93BF93EF93FF93A1
:100F4000E0918700F0918800309709F00995FF91B2
:100F5000EF91BF91AF919F918F917F916F915F9131
:100F60004F913F912F910F900FBE0F901F901895AA
:100F70001F920F920FB60F9211242F933F934F930E
:100F80005F936F937F938F939F93AF93BF93EF93F1
:100F9000FF93E0918500F0918600309709F0099564
:100FA000FF91EF91BF91AF919F918F917F916F9141
:100FB0005F914F913F912F910F900FBE0F901F9017
:100FC00018951F920F920FB60F9211242F933F93F3
:100FD0004F935F936F937F938F939F93AF93BF9341
:100FE000EF93FF93E0918300F0918400309709F034
:100FF0000995FF91EF91BF91AF919F918F917F9153
:101000006F915F914F913F912F910F900FBE0F9075
:101010001F9018951F920F920FB60F9211242F93C5
:101020003F934F935F936F937F938F939F93AF9370
:10103000BF93EF93FF93E0918100F091820030978E
:1010400009F00995FF91EF91BF91AF919F918F9119
:101050007F916F915F914F913F912F910F900FBEB4
:101060000F901F901895DB018F939F930E94650846
:10107000BF91AF91A29F800D911DA39F900DB29F34
:10108000900D11240895A1E21A2EAA1BBB1BFD018D
:101090000DC0AA1FBB1FEE1FFF1FA217B307E40757
:1010A000F50720F0A21BB30BE40BF50B661F771FAF
:1010B000881F991F1A9469F760957095809590958F
:1010C0009B01AC01BD01CF0108950E945309A59F6A
:1010D000900DB49F900DA49F800D911D1124089533
:1010E000689401C0E894F92FF12B12F00C94A40835
:1010F000A0E0B0E0EEE7F8E00C941609092E0594A4
:1011000022F40E940009112392F4F0E80F26FFEF69
:10111000E094F09400951095B094C094D094A1946C
:10112000BF0ACF0ADF0AEF0AFF0A0F0B1F0B0E944C
:10113000AF0807FC0E940009CDB7DEB7ECE00C94C5
:101140003209689401C0E8948F929F92CF93DF9305
:101150000E94AF08DF91CF919F908F9008958824CF
:101160009924F401E401B0E49F93AA279A158B0413
:101170009C04ED05FE05CF05D007A10798F4AD2F1F
:10118000DC2FCF2FFE2FE92D982C892E982F872F1B
:10119000762F652F542F432F322F2227B85031F747
:1011A000BF9127C01B2EBF91BB27220F331F441FA7
:1011B000551F661F771F881F991F881C991CEE1FDB
:1011C000FF1FCC1FDD1FAA1FBB1F8A149B04EC0549
:1011D000FD05CE05DF05A007B10748F08A189B087A
:1011E000EC09FD09CE09DF09A00BB10B21601A94AF
:1011F000E1F62EF49401AF01BE01CD01000C08957B
:101200006095709580959095309540955095219575
:101210003F4F4F4F5F4F6F4F7F4F8F4F9F4F0895FF
:101220002F923F924F925F926F927F928F929F92F6
:10123000AF92BF92CF92DF92EF92FF920F931F93E4
:10124000CF93DF93CDB7DEB7CA1BDB0B0FB6F89495
:10125000DEBF0FBECDBF09942A88398848885F84D5
:101260006E847D848C849B84AA84B984C884DF8046
:10127000EE80FD800C811B81AA81B981CE0FD11D2A
:101280000FB6F894DEBF0FBECDBFED010895002468
:10129000A7FD00942A17300540055005600570052C
:1012A000800590050895A29FB001B39FC001A39F40
:1012B000700D811D1124911DB29F700D811D11248F
:0812C000911D0895F894FFCF81
:0A12C8000502000002010000000012
:00000001FF
