:100000000C942A000C9447000C9447000C94470071
:100010000C9447000C9447000C9447000C94470044
:100020000C9447000C9447000C9447000C94470034
:100030000C9447000C9447000C9447000C94470024
:100040000C949D000C9447000C9447000C944700BE
:100050000C94470011241FBECFE5D8E0DEBFCDBF12
:1000600010E0A0E6B0E0E2E8FBE002C005900D92EF
:10007000A236B107D9F720E0A2E6B0E001C01D9298
:10008000AB36B207E1F70E9485040C94BF050C94CF
:10009000000087B1806487B987B18F7787B987B14E
:1000A0008F7D87B986B1887F86B986B1876086B92A
:1000B00086B1806886B986B1886086B90895611571
:1000C0007105B9F1909160009530A9F596E0909393
:1000D000600097B1907E97B997B1892B87B986B1A7
:1000E000806486B980E090E0DC0103C00196A11D28
:1000F000B11D349906C0803523EC9207A105B105E6
:10010000A8F38035934CA105B10571F086B18061EB
:1001100086B924B185B190E0982F8827822BFB0106
:100120009183808381E001C087E095E09093600037
:10013000089582E0089586E008951F920F920FB609
:100140000F9211242F933F934F935F936F937F935D
:100150008F939F93AF93BF93EF93FF93809166002C
:10016000811118C0E0916900F0916A0024B185B155
:1001700090E0982F8827822B9183808385E080935D
:100180006000E0916700F0916800099586B1877F73
:1001900086B933C0E0916900F0916A0024B185B15D
:1001A00090E0982F8827822B918380838091620032
:1001B0008F5F809362009091630089130CC085E08B
:1001C00080936000E0916700F0916800099586B126
:1001D000877F86B912C087B1807E87B997B1809139
:1001E0006200E0916400F0916500E80FF11D8081EC
:1001F000892B87B986B1806486B9FF91EF91BF9151
:10020000AF919F918F917F916F915F914F913F91AE
:100210002F910F900FBE0F901F90189580EF8ABB03
:100220008FEF87BB84BB81BB1BBA18BA15BA12BA51
:1002300081E00895843008F067C0683008F066C037
:10024000423008F065C08130E9F030F0823081F151
:10025000833009F443C05EC081E090E0062E02C006
:10026000880F991F0A94E2F780952AB32823842FD8
:1002700090E002C0880F991F6A95E2F7822B8ABB33
:1002800081E0089521E030E0062E02C0220F331FE6
:100290000A94E2F7209587B32823842F90E002C0C8
:1002A000880F991F6A95E2F7822B87BB81E008953A
:1002B00021E030E0062E02C0220F331F0A94E2F73D
:1002C000209584B32823842F90E002C0880F991FC3
:1002D0006A95E2F7822B84BB81E0089521E030E04B
:1002E000062E02C0220F331F0A94E2F7209581B335
:1002F0002823842F90E002C0880F991F6A95E2F7A7
:10030000822B81BB81E0089583E0089583E0089506
:1003100083E0089581E00895843008F067C0683074
:1003200008F066C0423008F065C08130E9F030F076
:10033000823081F1833009F443C05EC081E090E0F7
:10034000062E02C0880F991F0A94E2F780952BB3FE
:100350002823842F90E002C0880F991F6A95E2F746
:10036000822B8BBB81E0089521E030E0062E02C095
:10037000220F331F0A94E2F7209588B32823842F95
:1003800090E002C0880F991F6A95E2F7822B88BB24
:1003900081E0089521E030E0062E02C0220F331FD5
:1003A0000A94E2F7209585B32823842F90E002C0B9
:1003B000880F991F6A95E2F7822B85BB81E008952B
:1003C00021E030E0062E02C0220F331F0A94E2F72C
:1003D000209582B32823842F90E002C0880F991FB4
:1003E0006A95E2F7822B82BB81E0089583E008954D
:1003F00083E0089583E0089581E00895843010F546
:100400006295607F813061F028F0823079F083302E
:1004100099F01AC08BB38F70682B6BBB81E0089585
:1004200088B38F70682B68BB81E0089585B38F70A7
:10043000682B65BB81E0089582B38F70682B62BB27
:1004400081E0089583E0089581E0089541E062E04D
:1004500082E00E948C018FEC97E00197F1F700C0D9
:10046000000040E062E082E00E948C018FEC97E0A7
:100470000197F1F700C000000895CF93C82F40E026
:1004800060E082E00E948C0140E061E082E00E9436
:100490008C016C2F62956F7083E00E94FE010E94B8
:1004A00026026C2F83E00E94FE010E9426028FEC40
:1004B00097E00197F1F700C0000081E0CF91089527
:1004C000CF93C82F41E060E082E00E948C0140E0C1
:1004D00061E082E00E948C016C2F62956F7083E076
:1004E0000E94FE010E9426026C2F83E00E94FE0102
:1004F0000E9426028FEC97E00197F1F700C0000000
:1005000081E0CF9108952F923F924F925F926F9228
:100510007F928F929F92AF92BF92CF92DF92EF9293
:10052000FF920F931F93CF93DF93CDB7DEB728973A
:100530000FB6F894DEBF0FBECDBF29833A834B833D
:100540005C836D837E83382E292EA0E00E94B30544
:1005500021F480E30E946002E2C029813A814B814C
:100560005C816D817E81A0E00E94B3056CF40E94E5
:100570004A0529833A834B835C836D837E83382EBF
:10058000292E8DE20E94600281E01886912C812C38
:10059000712C612C512C412C8F837CC02F8138858C
:1005A000492D582D672D762D852D942D01E00E9423
:1005B0009105822E932E48875F83B62FA72FF82FA1
:1005C000E92F02E00E949105A22EB32EC42ED52E53
:1005D000E62EF72E082F192F282D392D48855F81FB
:1005E0006B2F7A2F8F2F9E2F0E94AA0528873F837B
:1005F000942E852E762E672E582E492E0F2EFAE039
:10060000AF2EF02DB12CC12CD12CE12CF12C00E01F
:1006100010E029813A814B815C816D817E81832D3F
:10062000922D0E94BA04A22EB32EC42ED52EE62EF1
:10063000F72E082F192F28853F81492D582D672D1A
:10064000762D852D942D0E94AA052F833887942E10
:10065000852E762E672E582E492E0F2EFAE0AF2EBD
:10066000F02DB12CC12CD12CE12CF12C00E010E0AC
:1006700029813A814B815C816D817E81832D922D10
:100680000E94BC0429833A834B835C836D837E8301
:10069000382E292E29813A814B815C816D817E81A2
:1006A000832D922DA0E00E94B30509F077CF2BC0D7
:1006B0000F2EFAE0AF2EF02DB12CC12CD12CE12C55
:1006C000F12C00E010E02F813885492D582D672D41
:1006D000762D852D942D0E94EB0480E3820F0E94DD
:1006E00060022F813885492D582D672D762D852D57
:1006F000942D0E94ED042F833887942E852E762E1C
:10070000672E582E492E2F813885492D582D672D5B
:10071000762D852D942DA1E00E94B30549F681E048
:1007200028960FB6F894DEBF0FBECDBFDF91CF91F4
:100730001F910F91FF90EF90DF90CF90BF90AF90FF
:100740009F908F907F906F905F904F903F902F90F1
:1007500008959FEF980F923070F4613170F4662322
:1007600071F0813019F42FE7260F0AC0823041F46E
:100770002FEB260F05C020E803C020E801C020E8C9
:10078000822F0E943D028FEC97E00197F1F700C0A5
:10079000000081E0089581E00E943D028FE99FE022
:1007A0000197F1F700C0000081E008952FE788E38A
:1007B00091E0215080409040E1F700C0000041E00E
:1007C00064E083E00E941A0141E065E083E00E945A
:1007D0001A0141E066E083E00E941A0141E067E00F
:1007E00083E00E941A0141E060E082E00E941A0169
:1007F00041E061E082E00E941A0141E062E082E0B3
:100800000E941A0182E00E943D028FE59AEE019754
:10081000F1F700C0000088E20E943D028FEC97E0F3
:100820000197F1F700C000008CE00E943D028FECC0
:1008300097E00197F1F700C000000E94CB0386E02B
:100840000E943D028FEC97E00197F1F700C0000095
:1008500081E00895AF92BF92CF92DF92EF92FF9224
:100860000F931F93CF93DF9300D0CDB7DEB77C01FA
:100870006B01FC01218188EE93E0289F5001299FA4
:10088000B00C1124BE016F5F7F4F80810E945F001A
:10089000F7018281811112C029813A81D5010E941C
:1008A000AB04DC01CB01072E7AE0B695A7959795AE
:1008B00087957A95D1F7702D8C010CC0813051F459
:1008C00029813A81D5010E94AB04BB27A92F982F1B
:1008D000872F8C019801ADECBCEC0E94AB0496957F
:1008E00087959695879596958795F601808381E003
:1008F0000F900F90DF91CF911F910F91FF90EF908C
:10090000DF90CF90BF90AF900895CF93DF9300D04A
:1009100000D0CDB7DEB70E940E010E9449000E94B0
:10092000D603198285E08A831B82BE016C5F7F4FEC
:10093000CE0101960E942A0461E081E00E94A90391
:100940002C8130E040E050E060E070E080E090E03A
:100950000E948302EACFA29FB001B39FC001A39F70
:10096000700D811D1124911DB29F700D811D1124E8
:10097000911D0895689401C0E894F92FF12B12F0AD
:100980000C94EE04A0E0B0E0E8ECF4E00C94600518
:10099000092E059422F40E944A05112392F4F0E8EE
:1009A0000F26FFEFE094F09400951095B094C0945A
:1009B000D094A194BF0ACF0ADF0AEF0AFF0A0F0BF7
:1009C0001F0B0E94F90407FC0E944A05CDB7DEB751
:1009D000ECE00C947C05689401C0E8948F929F929F
:1009E000CF93DF930E94F904DF91CF919F908F9076
:1009F000089588249924F401E401B0E49F93AA2780
:100A00009A158B049C04ED05FE05CF05D007A107C0
:100A100098F4AD2FDC2FCF2FFE2FE92D982C892EA7
:100A2000982F872F762F652F542F432F322F222771
:100A3000B85031F7BF9127C01B2EBF91BB27220FA3
:100A4000331F441F551F661F771F881F991F881C5F
:100A5000991CEE1FFF1FCC1FDD1FAA1FBB1F8A148E
:100A60009B04EC05FD05CE05DF05A007B10748F0A6
:100A70008A189B08EC09FD09CE09DF09A00BB10B10
:100A800021601A94E1F62EF49401AF01BE01CD016C
:100A9000000C0895609570958095909530954095DF
:100AA000509521953F4F4F4F5F4F6F4F7F4F8F4F67
:100AB0009F4F08952F923F924F925F926F927F9235
:100AC0008F929F92AF92BF92CF92DF92EF92FF925E
:100AD0000F931F93CF93DF93CDB7DEB7CA1BDB0B0A
:100AE0000FB6F894DEBF0FBECDBF09942A883988AF
:100AF00048885F846E847D848C849B84AA84B984B6
:100B0000C884DF80EE80FD800C811B81AA81B981C1
:100B1000CE0FD11D0FB6F894DEBF0FBECDBFED01D5
:100B200008950F93083090F0982F872F762F652F18
:100B3000542F432F322F22270850F4CF220F331F78
:100B4000441F551F661F771F881F991F0A95B2F70C
:100B50000F9108952A0D3B1D4C1D5D1D6E1D7F1DBF
:100B6000801F911F08950024A7FD00942A173005C7
:100B70004005500560057005800590050895F894BE
:020B8000FFCFA5
:020B820005006C
:00000001FF
