S01700004763634170706C69636174696F6E322E737265635A
S11300000C942A000C943F000C943F000C943F0085
S11300100C943F000C943F000C943F000C943F0060
S11300200C943F000C943F000C943F000C943F0050
S11300300C943F000C943F000C943F000C943F0040
S11300400C943F000C943F000C943F000C943F0030
S11300500C943F0011241FBECFE5D8E0DEBFCDBF16
S113006010E0A0E6B0E0E2E7F6E002C005900D92F1
S1130070A239B107D9F70E947F020C9437030C947C
S1130080000080EF8ABB8FEF87BB84BB81BB8FE00E
S11300908BBB18BA15BA12BA81E00895843008F0FF
S11300A067C0683008F066C0423008F065C081302F
S11300B0E9F030F0823081F1833009F443C05EC04E
S11300C081E090E0062E02C0880F991F0A94E2F79F
S11300D080952AB32823842F90E002C0880F991FAB
S11300E06A95E2F7822B8ABB81E0089521E030E033
S11300F0062E02C0220F331F0A94E2F7209587B31D
S11301002823842F90E002C0880F991F6A95E2F794
S1130110822B87BB81E0089521E030E0062E02C0E7
S1130120220F331F0A94E2F7209584B32823842FE7
S113013090E002C0880F991F6A95E2F7822B84BB76
S113014081E0089521E030E0062E02C0220F331F23
S11301500A94E2F7209581B32823842F90E002C00B
S1130160880F991F6A95E2F7822B81BB81E008957D
S113017083E0089583E0089583E0089581E008957D
S1130180843008F067C0683008F066C0423008F078
S113019065C08130E9F030F0823081F1833009F4B8
S11301A043C05EC081E090E0062E02C0880F991F14
S11301B00A94E2F780952BB32823842F90E002C0A1
S11301C0880F991F6A95E2F7822B8BBB81E0089513
S11301D021E030E0062E02C0220F331F0A94E2F71A
S11301E0209588B32823842F90E002C0880F991F9C
S11301F06A95E2F7822B88BB81E0089521E030E024
S1130200062E02C0220F331F0A94E2F7209585B30D
S11302102823842F90E002C0880F991F6A95E2F783
S1130220822B85BB81E0089521E030E0062E02C0D8
S1130230220F331F0A94E2F7209582B32823842FD8
S113024090E002C0880F991F6A95E2F7822B82BB67
S113025081E0089583E0089583E0089583E008959C
S113026081E0089541155105E1F18430E0F56830ED
S1130270E0F5813091F028F08230D9F0833029F113
S113028036C089B390E002C0959587956A95E2F7E8
S11302908170FA01808381E0089586B390E002C002
S11302A0959587956A95E2F78170FA01808381E0DC
S11302B0089583B390E002C0959587956A95E2F717
S11302C08170FA01808381E0089580B390E002C0D8
S11302D0959587956A95E2F78170FA01808381E0AC
S11302E0089582E0089583E0089583E0089581E00D
S11302F00895843010F56295607F813061F028F0B4
S1130300823079F0833099F01AC08BB38F70682BE8
S11303106BBB81E0089588B38F70682B68BB81E064
S1130320089585B38F70682B65BB81E0089582B30F
S11303308F70682B62BB81E0089583E0089581E0AB
S1130340089541E062E082E00E94C0008FEC97E0F3
S11303500197F1F700C0000040E062E082E00E94F3
S1130360C0008FEC97E00197F1F700C000000895FA
S1130370CF93C82F40E060E082E00E94C00040E0DC
S113038061E082E00E94C0006C2F62956F7083E090
S11303900E9479010E94A1016C2F83E00E947901DF
S11303A00E94A1018FEC97E00197F1F700C00000D3
S11303B081E0CF910895CF93C82F41E060E082E0BF
S11303C00E94C00040E061E082E00E94C0006C2F07
S11303D062956F7083E00E9479010E94A1016C2FE5
S11303E083E00E9479010E94A1018FEC97E00197BC
S11303F0F1F700C0000081E0CF9108959FEF980FBE
S1130400923070F4613170F4662371F0813019F424
S11304102FE7260F0AC0823041F42FEB260F05C0C8
S113042020E803C020E801C020E8822F0E94B80120
S11304308FEC97E00197F1F700C0000081E0089588
S113044081E00E94B8018FE99FE00197F1F700C0B5
S1130450000081E008952FE788E391E02150804077
S11304609040E1F700C0000041E064E083E00E94B6
S11304704E0041E065E083E00E944E0041E066E00A
S113048083E00E944E0041E067E083E00E944E005A
S113049041E060E082E00E944E0041E061E082E0E1
S11304A00E944E0041E062E082E00E944E0082E041
S11304B00E94B8018FE59AEE0197F1F700C00000A1
S11304C088E20E94B8018FEC97E00197F1F700C031
S11304D000008CE00E94B8018FEC97E00197F1F7DF
S11304E000C000000E94200286E00E94B8018FEC48
S11304F097E00197F1F700C0000081E00895CF93E1
S1130500DF93CDB7DEB7E3970FB6F894DEBF0FBE27
S1130510CDBF0E9441000E942B028FE0E0E6F0E094
S1130520DE01129601900D928A95E1F7FE01719613
S113053083E2DF011D928A95E9F780E001C08F5FB5
S1130540E2E0F0E0EC0FFD1FE80FF11D9081911146
S1130550F6CFFF24F39411E001E0612F802F0E9475
S1130560FE0181E40E94DB01AE014F5F5F4F60E05A
S113057080E00E9432018823D1F08981811117C063
S1130580B1E0FB1203C0F12C02E003C0FF24F3949A
S113059001E0AE014F5F5F4F60E080E00E943201F6
S11305A0882319F089818823A1F30E942002AE01D7
S11305B04F5F5F4F61E080E00E9432018823A9F021
S11305C08981811112C01F5F113109F411E0AE015C
S11305D04F5F5F4F61E080E00E943201882319F091
S11305E089818823A1F30E942002AE014F5F5F4FEF
S11305F062E080E00E9432018823A1F089818111A8
S113060011C0115009F410E1AE014F5F5F4F62E079
S113061080E00E943201882319F089818823A1F3A4
S11306200E942002AE014F5F5F4F63E080E00E94B2
S11306303201882309F491CF898181118ECF81E021
S1130640F81203C0F12C02E003C0FF24F39401E08C
S1130650AE014F5F5F4F63E080E00E943201882368
S113066019F089818823A1F30E94200276CFF8949F
S1050670FFCFB6
S1130672416264656C72686D616E202D3E3E0000BD
S11306820000000000000000000000000000000064
S11306920000000000000000000000000000000054
S10506A2000052
S9030000FC
